:020000040000fa
:10000000f0ff0320c13100004556000049560000b2
:1000100051560000555600005956000000000000df
:10002000000000000000000000000000eb440000a1
:100030004d56000000000000eb440000eb440000bf
:10004000eb440000eb440000eb440000eb440000f4
:10005000eb440000eb440000eb440000eb440000e4
:10006000eb440000eb440000eb440000eb440000d4
:10007000eb440000eb440000eb440000eb440000c4
:10008000eb440000eb440000eb440000eb440000b4
:10009000eb440000eb440000eb440000eb440000a4
:1000a000eb440000eb440000eb440000eb44000094
:1000b000eb440000eb440000eb440000eb44000084
:1000c000eb440000eb440000eb440000eb44000074
:1000d000eb440000eb440000eb440000eb44000064
:1000e000eb440000eb4400000000000000000000b2
:1000f00000000000eb440000eb440000eb44000073
:10010000eb440000eb440000eb440000eb44000033
:10011000eb440000eb440000eb440000eb44000023
:10012000eb440000eb440000eb440000eb44000013
:10013000eb440000eb440000eb440000eb44000003
:10014000eb440000eb440000eb440000eb440000f3
:10015000eb440000eb440000eb440000eb440000e3
:10016000eb440000eb440000eb440000eb440000d3
:10017000eb440000eb440000000000000000000021
:10018000eb440000eb440000eb440000eb440000b3
:1001900000000000eb440000eb440000eb440000d2
:1001a000eb440000eb440000eb440000eb44000093
:1001b000eb440000eb440000eb440000eb44000083
:1001c000eb440000eb440000eb440000eb44000073
:1001d000eb440000eb440000eb440000eb44000063
:1001e000eb440000eb440000eb440000eb44000053
:1001f000eb440000eb440000eb440000eb44000043
:10020000eb440000eb440000eb440000eb44000032
:10021000eb440000eb440000eb440000eb44000022
:10022000eb440000eb440000eb440000eb44000012
:10023000eb440000eb440000eb440000eb44000002
:10024000eb440000eb440000eb440000eb440000f2
:10025000eb440000eb440000eb440000eb440000e2
:04026000eb4400006b
:020000040000fa
:10026400f8b500bff8bc08bc9e467047994500002d
:10027400f8b500bff8bc08bc9e4670477545000041
:020000040000fa
:100284002de9f04f0b78026889b02f2b0e460546f6
:10029400019213d05c2b11d01369836030781f282e
:1002a40015d880232846002185f82b3009b0bde8f5
:1002b400f04f02f023be00bf16f8013f2f2bfbd0f6
:1002c4005c2bf9d00023ab6030781f28e9d9019a60
:1002d40013463032029200bfd3f80c9006f1010aa3
:1002e400a9f10208002480b2564600bb012c4ff04d
:1002f40004084ad0022c50d084b104f10042013adf
:1003040039f8123009eb420202e000bf32f8023d34
:10031400202b01d02e2b47d1013cf7d10023a9f883
:1003240000304ff0060b584609b0bde8f08f40f29c
:10033400b51104f0b3fb07460028f2d01f2f014685
:10034400c348d3d92f2f0fd05c2f0dd07f2f03d8c4
:1003540004f0c0ff0028e4d1ff2ce2d028f8027f8b
:1003640001341af8010bbee79af800302f2b5646d9
:100374000af1010af8d05c2bf6d01f2b8cbf4ff08a
:1003840000084ff00408012cb4d1b9f800302e2b2a
:1003940000f082814ff00042b4e7b9f802302e2b0e
:1003a40000f07581ab4aade7002729f81470b9f85d
:1003b4000020202a09eb440308bf4a4640f0238169
:1003c40032f8021f202907f10107f9d048f0030889
:1003d4005ffa88f833f8022d2e2a01d0013cf9d1b6
:1003e4004ff020324ff0000a6a622a62c5f82720d3
:1003f400d346082239f817300137bbb3202b24d059
:100404002e2b00f0ee80924524d2a74200f0ec801f
:100414007f2b00f2238119468f480392009304f046
:1004240059ff009b039a002800f0a081cdf80080ba
:10043400009b43f003085ffa88f85f2305eb0a0189
:100444000af1010a81f82030d4e748f003085ffa82
:1004540088f8cfe70b2a00f0a481a74200f0c780f8
:1004640048f003085ffa88f840f2c18095f820301c
:10047400e52b04bf052385f82030082a00f0c78047
:100484000bf00c030c2b04d00bf00303032b40f0f4
:10049400d38048f002085ffa88f885f82b800021a1
:1004a4002846d5f8008002f029fd834600286bd148
:1004b4004ff0ff33ff240094eb629a460ae00f2bbf
:1004c4004ad0c5f82ca0ff24284602f0abfd834691
:1004d400002859d1a969d8f82c30994205d0404652
:1004e40004f0f0fa834600284ed1ef693a78002ae6
:1004f40000f0868097f80b90e52a09f03f03ab7172
:10050400dfd019f0080bdad10f2b25d0002c51d0f5
:1005140095f82b40e007d4d438460b2205f120018e
:1005240004f070fd0028ccd163073ff5fcae19f050
:10053400100f00f04381019a2b691178029ac3f3da
:100544000803134403295a8b04bf9b8a42ea0342db
:10055400aa602b683078bfe695f82b305906b3d4df
:1005640053063bd5797b2b690091eb6202f0bf0403
:100574007b7b009a934200f0a280284602f052fd51
:10058400ff2483460028a5d0bbf1040f95f82b3037
:100594007ff4c9ae990603f0040240f11281002ae7
:1005a400d7d04ff0000b8023584685f82b3009b084
:1005b400bde8f08f07f10b013a4600bf12f8010bba
:1005c400e30143ea540450fa84f48a42e4b2f5d1d4
:1005d400009b9c429cd195f82b40a5e7a242ccd12c
:1005e400c6e7a7427ff431af0b2a00f0da804fea66
:1005f4008b0b5ffa8bfb27460b224ff0080af9e6b8
:1006040095f82b30c6e72e2a7ff4e4aedee64feaf7
:100614008b0b5ffa8bfb0bf00c030c2b3ff439af05
:1006240018f0020f7ff439af1bf0040f1cbf48f021
:1006340008085ffa88f830e718f0020f7ff42daf4e
:100644001bf0010f1cbf48f010085ffa88f8ebe7b5
:1006540060520000010000806c520000184648f00f
:100664000203dbb240f2b5110392009303f0cefd16
:1006740010f0800f0346039a62d000f07f035949bb
:10068400cb5c002b3ff4d4aeddf80080c3e6b9f8b0
:1006940000202e2a7ff486ae002329f8143005f1b9
:1006a4001f029c428cbf2e21202101330b2b02f808
:1006b400011ff6d148f0200885f82b80efe67b8bec
:1006c400002b7ff45aaf97f80090d8f80c30dff87d
:1006d4001cb1039309f03f0909f1ff39012309eb28
:1006e40049020794059509eb820919461846cdf885
:1006f40010805c46039d069612e0b9f1ff0f1ad8ec
:1007040002f00afa804635f8190002f005fa80452d
:1007140011d15946b146344ba34230d014f8010fdd
:1007240037f800b009f101064ff6ff7c584600295e
:10073400e3d1e345efd0dde90485069eff24c3e65b
:10074400ff289ed9511e8a450ad205eb0a01000ae8
:10075400ddf8008081f820000af1010adbb26de6c1
:1007640048f003085ffa88f8924643e6a3f1410192
:1007740089b219292ad84bf0020bdbb25ee63b782a
:10078400ddf81080079c5f06dde9055606d529b122
:10079400039b33f81930002b7ff4efae013ce4b235
:1007a40092e695f8203048f00308e52b5ffa88f8c4
:1007b4007ff466ae052385f8203061e64ff0050b23
:1007c400b1e5002afad04ff0040bace5a3f16101c6
:1007d40089b2192997bf203bdbb2dbb24bf0010b86
:1007e4002ce600bf4c330000ec530000e053000043
:020000040000fa
:1007f4002de9f04f7d4d2c68287d227885b020b9f5
:100804009ab92a7505b0bde8f08f2146002303e0ac
:100814008342f7d011f8282f0133dbb20c46002aab
:10082400f6d0012b00d100232b756279237b012a9a
:1008340006d0042be6d8dfe803f009203045150084
:10084400042b04bf00236b750023237394f820301a
:10085400012b6bd0002384f820302360a38005b0e3
:10086400bde8f08f94f92130022b63d0002b6bd0bc
:10087400002203236a752373c4e7a368e0885b6ad4
:1008840003219847431c6061bcd0a36858491b6985
:100894002246984702232373b4e7a36860691b6860
:1008a400984794f820300546002838d033b9a36817
:1008b40060695b689847032360622373012384f8ab
:1008c40020309fe76b7d002b9cd1636a28691b69ec
:1008d4001e684ff40072b6f5007f4ff001034ff02d
:1008e400000128bf1e466b753cbf4ff40073b3fb79
:1008f400f6f604f0e5fca3686069022284f821207e
:1009040000969e682a69002304f11c01b047e3693c
:10091400013315bf0423002323736b7572e7012b86
:1009240000f00881002384f820306be7204603f0b0
:1009340093f88fe7a368db6a002b3ff463af206969
:1009440005b0bde8f04f18472a69637092f8fe318c
:10095400552b40f0e68092f8ff31aa2b40f0e1805d
:100964001378eb2b00f00a8192f8c2010f2800f2f1
:10097400028104f07dfc002800f02c814ff0010876
:1009840084f8018092f8d2010f2807d804f070fc93
:1009940020b16378013348f00208637092f8e201f1
:1009a4000f2800f2cf8004f063fc002800f0ca8016
:1009b40063780133637092f8f2010f2848f0040859
:1009c40004d804f055fc002840f0c3804ff001091e
:1009d400ca466f682b6997f800b00393bbf1000f08
:1009e40008d0002202236a7523730be70427002032
:1009f400fd4800007c4a217e237952f8211002919f
:100a040001330846237104f0c1fbbb1cc6b2324655
:100a14000299184604f004fbba19a178917021795f
:100a2400721c023657fa82f257fa86f63031917008
:100a3400034686f802b0bc6187f801a0b8f1000f44
:100a44002ed018f0010f6ad118f0020f6fd118f0f0
:100a5400040f74d118f0080818bf4ff00308baf156
:100a6400ff0f1dd0614a039832f81820815c797019
:100a74000244917ad07a167a090401eb0061507a23
:100a8400314401eb00217961917992f807c016791c
:100a940050790a0402eb0c62324402eb00223a6100
:100aa400e2785349b9f1000f2cd008f1010881f81c
:100ab40001800a70ae68217e327a0120914238703a
:100ac4008fd177681846791d04f06cfb0346002823
:100ad40087d1727a31680090384600f06dfca8b175
:100ae4004ff00308434f3b681bb17a6831684046b6
:100af4009847bb68002b3ff474affa6831684046ee
:100b040098476ee70a7081f80190d3e704f0fafc85
:100b1400a0f10d08b8fa88f84fea5818e2e7d84669
:100b24009de74ff00009c8464ff0ff0a51e74ff028
:100b3400010894e7204602f08fff2571f2e64ff09a
:100b440002088ce792f8f2010f280bd804f090fb0e
:100b540040b163784ff001094b4448f008086370d2
:100b6400ca4636e74ff00109b8f1000f34d1c84640
:100b74004ff0ff0a2de74ff0000803e753783c2bb2
:100b840004d0582b02d0fe2b7ff4eeae9378902b3a
:100b94007ff4eaae0123637092f85230462b1dd0e5
:100ba40092f85330412b19d092f85430542b15d06d
:100bb40092f83630462b07d092f83730412b03d0c9
:100bc40092f83830542bacd14ff00009c8464ff09e
:100bd400060afee68046d5e6ca46fae64ff0000964
:100be400c8464ff00b0af4e6885200009055000006
:080bf400c42500206825002043
:020000040000fa
:100bfc001c27002004000000010000000000000081
:100c0c00002500201c00000000000000b42500207e
:100c1c000400000000000000801c00200002000006
:100c2c0000000000d425002030010000040000006a
:100c3c000005c000ff002b0090230020980000004e
:100c4c0000000000cb250020010000000000000087
:100c5c00382500201000000000000000ac2500200a
:100c6c000600000000000000982500200c00000089
:100c7c0000000000c8250020030000000000000058
:100c8c00b22500200200000000000000cc2500204e
:100c9c000100000000000000b82500200400000046
:100cac0000000000c625002002000000000000002b
:100cbc00801e002000020000000000009025002093
:100ccc000800000000000000cd25002001000000fd
:100cdc000000000078240020080000000000000044
:100cec004825002010000000000000008022002099
:100cfc00100100000000000058250020100000002a
:100d0c000000000088250020080000000000000002
:100d1c00ce2500200100000000000000c4250020aa
:100d2c000200000000000000cf25002001000000a0
:100d3c0000000000682500201000000000000000ea
:100d4c00101000200008000000000000802000208f
:100d5c000002000000000000b42400202800000065
:100d6c00000000001c2500201c00000000000000fa
:100d7c00042700201800000001000000b42400200b
:100d8c001c2500204455000000000000802000209d
:100d9c00000000008024002034000000000000004f
:100dac00501a002030020000000000001018002033
:100dbc004002000000000000d025002001000000cf
:100dcc0000000000dc2400202400000000000000d3
:100ddc00782500201000000000000000100000200a
:100dec000010000000000000a425002008000000f6
:100dfc0000000000bc2500200400000000000000e2
:100e0c00282400205000000000000000c025002015
:100e1c000400000000000000202700200400000057
:100e2c0001000000000000000000000000000000b5
:020000040000fa
:100e3c0061001a03e0001703f8000703ff0001002c
:100e4c0078010001300132010601390110014a011b
:100e5c002e017901060180014d00430281018201be
:100e6c0082018401840186018701870189018a013d
:100e7c008b018b018d018e018f01900191019101ec
:100e8c0093019401f60196019701980198013d0296
:100e9c009b019c019d0120029f01a001a001a201c8
:100eac00a201a401a401a601a701a701a901aa01fd
:100ebc00ab01ac01ac01ae01af01af01b101b201ac
:100ecc00b301b301b501b501b701b801b801ba015d
:100edc00bb01bc01bc01be01f701c001c101c201d3
:100eec00c301c401c501c401c701c801c701ca01be
:100efc00cb01ca01cd011001dd0101008e01de0123
:100f0c001201f3010300f101f401f401f8012801cd
:100f1c00220212013a020900652c3b023b023d02ff
:100f2c00662c3f0240024102410246020a01530272
:100f3c00400081018601550289018a0158028f0106
:100f4c005a0290015c025d025e025f029301610233
:100f5c0062029401640265026602670297019601bf
:100f6c006a02622c6c026d026e029c0170027102ac
:100f7c009d01730274029f01760277027802790256
:100f8c007a027b027c02642c7e027f02a601810223
:100f9c008202a9018402850286028702ae01440204
:100fac00b101b20145028d028e028f0290029102b4
:100fbc00b7017b030300fd03fe03ff03ac03040036
:100fcc008603880389038a03b1031103c203020059
:100fdc00a303a303c4030803cc0303008c038e03f5
:100fec008f03d8031801f2030a00f903f303f40387
:100ffc00f503f603f703f703f903fa03fa033004d6
:10100c00200350041007600422018a043601c10435
:10101c000e01cf040100c004d00444016105260474
:04102c00000000bf01
:020000040000fa
:101030002de9f043002385b00b600d4603f00afc58
:10104000071ec0f2c380704b53f82740002c00f0fd
:10105000c2802c60237860782bb104f0e1fa10f0a4
:1010600001067cd060780023237004f0c1f910f0f1
:10107000010673d1654b03eb4707314620467f7865
:1010800001f0f2fa02286ed000f29a80002f6ad1a5
:10109000b4f83b30b3f5007f40f08b80b4f84610d5
:1010a00001b9616d94f84030a1615a1e012ae370c4
:1010b000d4f82cc07dd894f83d2090b260810028ef
:1010c00077d0501e104274d1b4f8415025812807c2
:1010d0006fd1b4f8430000b9206db4f83ee0bef122
:1010e000000f66d001fb03f30eeb15171f44874278
:1010f0005fd8c01b9042b0fbf2f85ad3444a9045e7
:1011000057d84ff6f579c8450ceb0e02674408f145
:10111000020064d840f6f57ef0456061c4e907c27c
:10112000a76269d8002d44d0134400eb400200f0c0
:101130000100636200eb5200012500f2ff13b1ebe6
:10114000532f36d3334a34481388257001339bb26a
:1011500000211380e380c4e9030100e00326304648
:1011600005b0bde8f083042f23d8d4f8f631d4f8c5
:101170000612d4f816220093d4f826320393cde950
:101180000112dfb93d460deb85050df1100803e0b6
:101190007fb90320a8450ad055f8041b0029f7d0d1
:1011a000204601f061fa5fb90128f3d870e70428fe
:1011b00013d00d26304605b0bde8f0837d1ee2e772
:1011c00004280ad001287ff663aff2e70b263046e9
:1011d00005b0bde8f0830c26c1e70126bfe7b4f8ef
:1011e0005a3060612b43c4e907c2a762e1d1e36dc5
:1011f000636280000325a0e7002ddad01344636208
:101200004000022599e700bfb8250020c425002032
:0c121000f5ffff0fc6250020801e002007
:020000040000fa
:10121c00002840f0b9802de9f04f1e46624b1c6847
:10122c006069431c89b068d0636ad4f808c01b6934
:10123c009b6807939146b3f5007f04f11c020f469f
:10124c00049245d94fea5328b8f1010f4ad0564ab7
:10125c0001239375002e00f0a280cde902694ff4b2
:10126c00006305936346029db7fbf8fb08fb1b7af2
:10127c00a8eb0a094d4528bf4d46454540d1029e75
:10128c00039ad3f80ca04e456fd94ff0020c0121f4
:10129c005b4684f821c000910499d04794f9213021
:1012ac00022b09d1a368db6a002bfbd0206998477d
:1012bc0094f92130022bf5d0002b68d1731b0293cb
:1012cc00039b606903eb452303932f44a368cae790
:1012dc0008d04ff40073079ab3fbf2f303fb07f744
:1012ec0003fb06f6022384f8213000963b464a465f
:1012fc000499dcf80c50a847e06909b0bde8f08f00
:10130c00079e059ab6f5006f38bf32461146059216
:10131c00022284f8212000919b680693234a0499a9
:10132c000bfb06f3069eb04794f92130029e022b6c
:10133c0009d1a368db6a002bfbd02069984794f98c
:10134c002130022bf5d002960bbb184b039903eb03
:10135c004a206a0203f060fe144b029e60691a4632
:10136c00a3684e45d3f80ca08fd802250e4f84f8f5
:10137c00215000260125be755b4604990095d04787
:10138c00e06909b0bde8f08f4ff0ff307047064ab6
:10139c0000234ff0ff30937509b0bde8f08fdcf8f7
:1013ac000ca0b3464a46e0e70427002010100020aa
:020000040000fa
:1013bc00002800f08a80002900f08780531e032b40
:1013cc0000f283802de9f04383b0814615460c462c
:1013dc0003f01af8002800f08a80dff85c81534e85
:1013ec0098f800700023af42337006d01523337089
:1013fc004ff0ff3003b0bde8f0834846694603f078
:10140c005bfa002879d09df80430bb4202d0002b47
:10141c0040f08780dff8249199f80030012b06d03a
:10142c0007234ff0ff30337003b0bde8f083404f1b
:10143c003a78002189f8001032b1142289f8003072
:10144c0032704ff0ff30d5e7d8f804c0c7f804c0ad
:10145c003a7314f8053f7d702f2b0bd053b12346f4
:10146c00c4f1010000e02ab1c2183a7313f8012f3d
:10147c002f2af8d1bb7b9df80000bc60012b787340
:10148c0009d0072201234ff0ff30327089f8003069
:10149c0003b0bde8f083dcf848300022ba731bb30c
:1014ac009847d7f804c0dcf80030a3b1787b984794
:1014bc000d28307026d00123bb7368bb1d4a3b70ce
:1014cc0089f800301370576094e7184b13221a7088
:1014dc004ff0ff307047012317223270bb7389f82d
:1014ec0000304ff0ff3085e717233370dbe70f4bed
:1014fc0003221a704ff0ff307ce7012333704ff05a
:10150c00ff3077e70b4a012357601370bb733b70b6
:10151c0089f8003000206de789f800304ff0ff307b
:10152c0068e7162333704ff0ff3063e7cd250020ba
:10153c00582500207824002088250020ce25002066
:020000040000fa
:10154c00f8b5574d2b78082b0bd8dfe803f01105b5
:10155c00182b505b708e0b0095f82c310bb10223bd
:10156c002b70f8bda86802f0d5fa01232b70f8bdda
:10157c0000214c4804f052f801232b70f8bd4a4965
:10158c004a4801f05bfe0028ebd1eb68002be8d059
:10159c000146464800f090fda8600130e1d00323dd
:1015ac002b70f8bdee6826f4ff5626f01f0616f5d4
:1015bc00005f12d006f560464ff44044204603f01d
:1015cc005dfb00bf03f0befe0028fbd104f5005408
:1015dc00b4f5801f01d0a642f0d104232b704ff438
:1015ec000072ff213248bde8f84003f065be4ff4ad
:1015fc0000722f49a86802f061f9002846d0052333
:10160c002b70f8bd69682a4803f0aaf803f09afe1b
:10161c000028fbd16b68264803f500734ff4007269
:10162c00ff216b6003f048fe04232b70f8bddff83c
:10163c008cc0204bdcf800701c1d391d091b04f5f7
:10164c00fe70ca5843f8042f8342fad11a4e381b45
:10165c00a6f5007301e0b3420bd0c15853f8042b2c
:10166c009142f8d009232b70f8bdbde8f84003f087
:10167c0087baeb6807f5007703f540439f42ccf837
:10168c000070fff46eaf07232b70f8bda86802f052
:10169c0041fa0a4a4ff44041062311602b70f8bd01
:1016ac00d4250020694b0000e025002040500000ac
:1016bc00801c00207c1c0020801e0020b4250020f3
:020000040000fa
:1016cc002de9f8430024d0f800908c758369002b29
:1016dc006dd0c36a01330e4680466ad0d9f80c200f
:1016ec00105b25462746002873d02db900f52053f2
:1016fc009bb2b3f5006f6ed340ea054040f2b511d2
:10170c0002f080fdff28c7f1ff0354d9012b64d8e8
:10171c000023002d18bf0023334400229a7596f83d
:10172c001690d8f81cc000200cf1ff320cf10a0ef8
:10173c004ff02e0804e0351808466b72a64517d0fa
:10174c0053789db2541c202da2f1070700f1010122
:10175c002246f3d0052d08bfe5236745ebd10b28b6
:10176c00e9d83718851c87f8098008462946e2e72e
:10177c00331800225a72b9f1000f0ad1a8bb3f23cb
:10178c00b375012434440023a3759cf80c3003b9c1
:10179c0073729cf80b3003f03f033372dcf81c308f
:1017ac003360bcf81630f380bcf81830b380bde859
:1017bc00f883a146b5e7b0b1002baad0f2190123ea
:1017cc009075d9f80c201f4400250234105b0028ba
:1017dc008bd13b469de70546f7e7f319020ad8750e
:1017ec009a750223ede7034693e7737a4c46002b78
:1017fc00c8d06ff00705ad1b06f1090208270ee0f3
:10180c00192806d89cf80c100f4203f1200100d0c7
:10181c00cbb25373ac1812f8013f002bb2d099b273
:10182c002e29a1f14100ebd10b461027f1e700bfa7
:020000040000fa
:10183c00002874d1f0b5514c94f90030022b8bb0c8
:10184c000d4607d194f89530012b48d04ff0ff305e
:10185c000bb0f0bd266cf36823b1a08e984702281c
:10186c00f4d1266c3368002b00f085800b21a08e00
:10187c0098470746a0630130e8d0266c00216846e3
:10188c00282203f019fd6946f36938469847002869
:10189c00dcd0dde90031e367069bc4f88c30dde970
:1018ac000326e362059b236702230798c4f8801084
:1018bc002370182194f89530c4f88420a262c4f8df
:1018cc009000029a089884f868102d49e266012b62
:1018dc00099ac4f88860c4e91d01e260b6d1e379c5
:1018ec00002284f89520b3b994f860700fb12a07e0
:1018fc0011d4606e78b1a66db2789ab106f110036e
:10190c00002202e013f80e1c61b1013290421e4617
:10191c0003f11003f6d1012384f8953096e74ff0cc
:10192c00ff30704700233370736001212b07b170b7
:10193c00757048bfe171218e4b1c42ea01429bb28b
:10194c0001374ff6ff718b4208bf012384f860709a
:10195c00b2600132238609d094f83c3033b1236c49
:10196c009b691bb1054a0749a06b9847012384f872
:10197c009530b0686ce7a76b80e700bf9023002020
:08198c000c2400205955000055
:020000040000fa
:101994002de9f043adf20c4d05460c4602a800219a
:1019a4004ff4806203f08cfc474b93e803000090f3
:1019b400adf80410002d66d0002c64d0434b1a7887
:1019c400002a66d05e6873685a6c002a6dd0b77bb3
:1019d400012f08d03e4b07221a704ff0ff300df252
:1019e4000c4dbde8f0830022b2735b6cdff8e0803d
:1019f400214628469847b77388f8000000285ad132
:101a04002b78303bdab2092a37d9a946484603f085
:101a1400bdfb337b05330344a34207463fd8421c36
:101a2400494602a803f0fcfa22460021284603f0a6
:101a340047fc6d2400222f21b446012302e02146f5
:101a44001df80640d0b21a460133deb22954002ce8
:101a5400f5d1664605359cf80c20dcf808102846bc
:101a640003f0defa307b3a46284402a903f0d8faa0
:101a740020460df20c4dbde8f083727b9a421dd1d5
:101a840005f10209c2e7124b13221a704ff0ff301e
:101a9400a5e70f4b0d221a704ff0ff309fe711237b
:101aa40088f800304ff0ff3099e7094b17221a707d
:101ab4004ff0ff3093e74ff0ff3090e7062388f8ac
:101ac40000304ff0ff308ae7805500007824002072
:041ad400cd250020fc
:020000040000fa
:101ad8002de9f84f15461e469df82c809df830706c
:101ae8009df834900c4611b14ff0ff330b6002f0b3
:101af8009bfa00b3437819ea030f1cd0edb10a9b97
:101b0800cbb10278404902ebc20302eb43034344e2
:101b180001ebc3030a99d3f8803001eb060c9c450e
:101b280009d8394b4ff0980c0cfb023c9cf894e018
:101b3800bef1010f04d0bde8f88f022ffbd1dee71c
:101b48004ff00008dcf840308cf894809b68002b3c
:101b58004dd090f800e02c4b4ff0980808fb0e3859
:101b6800d8f848c0bcf1000f39d0b8f832a0dcf87a
:101b78000030dcf82010c8f848100af101094ff6c7
:101b8800ff7b1ffa89f943ea0e23d94508bf4ff0b6
:101b9800010943ea0a434ff0010b4ff0000a0a9982
:101ba800ccf80c30ccf80400cce90456ccf818106a
:101bb8008cf81c708cf808b0ccf820a0a8f83290eb
:101bc80004b123601049982303fb0e1edef84c3045
:101bd8009bb1def85030c3f820c0cef850c00a4997
:101be800982303fb0212012382f89430a3e7022f03
:101bf80006d0032f08bf0127abe7cee913cceee7e9
:0c1c08008cf894e097e700bf90230020c8
:020000040000fa
:101c14002de9f041d6b000230190054603700f462c
:101c240001a803a9fff702fa0646002843d1039b43
:101c34000493d3f81080cdf818803c46b8f1000f17
:101c440075d0202104a801f059f9002876d1039811
:101c54000a99c36a994204d002f034ff00286dd176
:101c6400039801780b9a0329538b08bf928a4ff08b
:101c7400000108bf43ea024304a8069301f03ef9b9
:101c840078b15be0039b0b9a1978538b032904bf4b
:101c9400928a43ea0243984504a812d001f0c2f99b
:101ca40028b9002104a800f051f80028ead004283b
:101cb40014bf06460226002330462b7056b0bde8fa
:101cc400f08110a904a8fff7fffc9df856305bb320
:101cd4000df15601002200e01a4611f8010f531cc1
:101ce4000028f9d1911ca14226d8f3b1163210a9cb
:101cf4000a44e31a013c019912f8010908559c426f
:101d0400f8d15c1e019b2f221a55ddf81880b8f11a
:101d1400000f96d1a7420ad0019b1b5d05f8013b39
:101d24000134a742f8d8c6e734b12346e9e7013cb9
:101d3400019b2f221a55efe71126bce70646002324
:0c1d440030462b7056b0bde8f08100bfa7
:020000040000fa
:101d50002de9f047ff27044605680e46b8460420e3
:101d600006e04ff0ff08204601f05ef9002857d149
:101d7000a169002958d0eb6a994204d0284602f0a4
:101d8000a3fe00284cd1e1690a78002a47d0cb7a1b
:101d9000e52a03f03f03a371e3d02e2ae1d023f01c
:101da0002000a0f10800b0fa80f04009b042d8d17c
:101db0000f2b4dd150062fd523694f7be36202f0e4
:101dc000bf024b7bbb42ccd14b8b002bc9d10878d7
:101dd0002b4bd5f80c9020f04000013800eb400e62
:101de0004ff0010c00eb8e0003f10c08e6464ff6b5
:101df000ff7a09e0ff28b4d829f810c0e646013080
:101e0000984516d013f801cf31f80cc0bef1000f81
:101e1000f0d1d445f4d0a4e79045a2d1d1e7042075
:101e20000023a361bde8f0870028f9d10020bde8b8
:101e3000f0870b785b0607d5bef1000f04d0ff28b2
:101e40008fd8002329f81030013a5ffa82f88ae728
:101e5000b8f1000f10d101f10b0000bf4feac8121a
:101e600011f8013b42ea580253fa82f288425ffac3
:101e700082f8f3d14745d9d04ff0ff33e362d5e77d
:041e8000e05300002b
:020000040000fa
:101e84002de9f04f984685b000238946c8f8003004
:101e940003a91446054602f0ebfb074648bb6f7cda
:101ea4003fbb95f810a01af0010a7bd06b69ea6871
:101eb400d61aa64228bf2646deb1bb46c3f30801a4
:101ec400d9b105f12007c1f50074b44228bf3446e6
:101ed40039442246484603f0a3f8d8f800206b6939
:101ee40022442344361bc8f80020a1446b61e5d189
:101ef4005f46384605b0bde8f08f03994a89013a38
:101f040012ea53221fd0a8694b690238023b984257
:101f140026d24b898c6a03fb00440cb3b6f5007fd0
:101f2400144423d2eb69a34205f1200706d0487874
:101f340001232246394602f0f9fa60bb6969ec6173
:101f4400c1f30801bfe7fbb9a868012808d9431cfd
:101f540021d00399a8614b690238023b9842d8d337
:101f6400022738466f7405b0bde8f08f770ad019a0
:101f7400984288bf9f1a487822463b46494602f059
:101f8400d5fa40b97c02a8e7a9692868019200f053
:101f9400d5fb019ad9e75746012338466b7405b03f
:081fa400bde8f08f0727a4e758
:020000040000fa
:101fac00b0f1ff3f68d0002966d0002b64d02de93a
:101fbc00f0470478002c65d044686568ad6f002d3f
:101fcc006bd0dff8f0a01f46914688460646a57bed
:101fdc000023012d8af8003006d007238af8003040
:101fec004ff0ff30bde8f087a373d6e901305b6892
:101ffc0039469b6f984773689d73002848d1d7f872
:10200c0018512db32b781bb33b7a19ea030f2fd041
:10201c00434613f8014b06e02a78a24216d101354b
:10202c0013f8014b04b33f2cf9d02a2cf4d11878b7
:10203c000028d7d03f28f3d02a789042f0d02ab18c
:10204c0015f8012f9042ebd0002af9d17468bee745
:10205c00bb7d43b33b7a19ea030f02d1b9f1000ff0
:10206c00f4d107f11605d3e728780028eed1b9e7ab
:10207c00b9f1000fead1cbe70e4b13221a704ff0d7
:10208c00ff3070470b4b09221a704ff0ff30a9e755
:10209c008af800004ff0ff30a4e7064b17221a70a5
:1020ac004ff0ff309ee704238af800304ff0ff30ea
:0820bc0098e700bfcd250020cc
:020000040000fa
:1020c4002de9f0410023c2b004464ff481720d465d
:1020d40001a81946009303f0f3f801aa69462046c3
:1020e40000f094fb002838d000984378022b0bd0e2
:1020f40030490a78012a0dd02f4b07221a704ff06d
:10210400ff3042b0bde8f081002df5d129490a78ad
:10211400012af1d1294e33784bbb9df80630327039
:102124002f2b70600a701dd00df10602244902f1b4
:10213400fe0403e0a24205d012f8013f01f8013f7a
:10214400002bf7d1847b012c18d01b4a07210023d4
:10215400117033704ff0ff30d3e74ff0ff3042b0cf
:10216400bde8f0819df807300df10702dee7124b60
:102174000a7012221a704ff0ff30c2e7002342683f
:1021840083730d4fd2f808803b70b8f1000f09d06b
:102194002a4601a90b48c047009b38709c7320b99c
:1021a4000648aee7172384733b70002333704ff067
:1021b400ff30a6e7ce250020cd2500208022002078
:0821c4008f2200208822002078
:020000040000fa
:1021cc00c700fc00e900e200e400e000e500e700e5
:1021dc00ea00eb00e800ef00ee00ec00c400c500e4
:1021ec00c900e600c600f400f600f200fb00f9009e
:1021fc00ff00d600dc00a200a300a500a7209201de
:10220c00e100ed00f300fa00f100d100aa00ba00e1
:10221c00bf001023ac00bd00bc00a100ab00bb0094
:10222c009125922593250225242561256225562585
:10223c0055256325512557255d255c255b251025e6
:10224c00142534252c251c2500253c255e255f25d1
:10225c005a25542569256625602550256c2567254a
:10226c0068256425652559255825522553256b2548
:10227c006a2518250c25882584258c2590258025f4
:10228c00b103df009303c003a303c303b500c4036e
:10229c00a6039803a903b4031e22c603b50329227f
:1022ac006122b1006522642220232123f7004822f9
:1022bc00b0001922b7001a227f20b200a025a0007e
:020000040000fa
:1022cc002de9f041374f97f9012082b00023022a03
:1022dc008df80630adf8043019d17c68bcb9324e9b
:1022ec00fb68c6f8024040f2f5623280884605462b
:1022fc001b6830462146984748b10622fb6834607b
:10230c00b48032701b6821463046984728b94ff08c
:10231c00ff35284602b0bde8f0819822fb68346096
:10232c00b48032701b682146304698470028eed0a6
:10233c003522fb683460b48032701b68214630460d
:10234c0098470028e3d001a9284602f02bfc00286e
:10235c00ddd09df8062015491c2301e051f83430de
:10236c009a4208d001340d2cf8d17b6887f8028092
:10237c0001337b60cde70d4b03ebc4046368b3f111
:10238c00807ff2d9002140f2b762fb68c6f80210d8
:10239c0032801b68044898470028b8d0044b0122af
:1023ac001a70e2e738250020ac25002060380000c8
:0423bc00cb2500200d
:020000040000fa
:1023c000f8b50179456dd0e90a2302290446b3fb2b
:1023d000f2f23bd0032945d001291fd000206080b4
:1023e000d5e90517d2b26070b1fbf2f002fb101113
:1023f000561abe42c4e9071684bf3e462762b2425f
:10240000a0614ad0a16861620122227100fb03f23f
:10241000204602f0cff8012809d0f8bd8168806914
:1024200000fb03f2204602f0c5f80128f5d1a26aac
:10243000e369a068266a296903fb02f3e361184493
:1024400006fb02f202f0eefd022323710123a269d2
:102450000021204601f09efa0128ded103232371da
:102460000020f8bd8669416ad3b206fb03f201f091
:102470008bf90128d1d1aa69236a9a42cdd0a66ae4
:1024800028696969d21a194406fb03030026c5e9c5
:1024900005122b6130462671f8bd2b696362022359
:0824a00023710020f8bd00bf0c
:020000040000fa
:1024a8002de9f04182b00d4601a9044602f0def89c
:1024b800064600285ad1667c002e57d1e268616929
:1024c8006661954228bf1546002d4fd0019ab2f893
:1024d8000a804fea482859bba068a061002845d067
:1024e800002311e0434463610146206800f024f9a9
:1024f800431ca5eb080540d001283bd9019a536934
:10250800834237d96369a061a845ebd32b44c5f34f
:1025180008076361d7b1516902380239884229d264
:102528005789916a00fb071727b307eb55270de07a
:1025380001396b1eb1fbf8f0b3fbf8f38342cbd340
:10254800c8f10003a7690b406361cfb9c3f308035f
:1025580063b1e369bb4209d0507801233a4604f1dc
:10256800200101f0e1ff064638b9e761304602b0c4
:10257800bde8f08102266674f8e701266674f5e77f
:08258800ed1a3846c0e700bf60
:020000040000fa
:10259000431c1bd0982303fb00f32de9f041304d81
:1025a000ea56022a2b4401d0bde8f08193f89460ea
:1025b000012ef9d193f83c20002183f8941032b118
:1025c00093f83d201ab983f89460ede7704798239b
:1025d00003fb005304465a79002a31d0012a28d13e
:1025e000982000fb04501f4a476d397fbb6952f8a1
:1025f0002180d7e90412c04701282bd019d9ff2325
:102600003b72982303fb04537a68d96cd2f8048098
:10261000096ad964012183f83d1000215971996c30
:1026200039629f64b8f1000f03d0d268f968304670
:10263000c047982000fb0450012380f89430b3e792
:10264000d96c596549b1c3f80120012002225871a3
:102650000a72c5e700263e72d3e71965e9e700bfb5
:0826600090230020105300003c
:020000040000fa
:1026680038b54ff0ff330022994204460271c36225
:1026780034d194f83030b4f82e52eb2b0ad01833fa
:10268800dbb2012b06d94af65520854214bf032038
:10269800022038bd4af655239d420bd0b4f83b3092
:1026a80094f83d105a1e1a4202d1b3f5007f1bd090
:1026b800032038bd08221f4904f1820002f0a0fc63
:1026c8000028e6d0b4f83b305a1e1a4204d1b3f5bc
:1026d800007f94f83d2026d0022038bd02f0f0f9a2
:1026e8000028c6d0042038bd0029e1d04b1e0b427b
:1026f800ded1e38f002bc6d094f84030013b012b8c
:10270800c1d8b4f84130002bbdd0b4f843307f2b8a
:1027180003d8236db3f5803fb5d3b4f84630002b0a
:10272800b1d0002038bd002ad6d0531e1342e0d0c5
:08273800d2e700bffc540000d1
:020000040000fa
:1027400001290ed9426991420bd2f8b50378022bc8
:1027500006460c4633d0032b05d0012b11d00120a7
:10276000f8bd01207047016ac36a01ebd411994298
:1027700040d1a30003f4fe733344186b20f0704083
:10278000f8bd036ad0f82cc001eb510703eb5721c9
:10279000614527d1c7f308020137324403eb5721c3
:1027a000614592f830502ad1c7f30803334493f8b7
:1027b0003000e30745ea002027d50009f8bd016a8b
:1027c000c36a01eb1421994205d1630003f4ff733e
:1027d0003344188ef8bd02f077f90028f5d04ff099
:1027e000ff30f8bd02f070f90028f8d1336ad6f84e
:1027f0002cc0cfe702f068f90028bad0efe73046e6
:1028000002f062f90028cfd0e9e7c0f30b00f8bd71
:020000040000fa
:102810002de9f84389461746064602f0b9fc052221
:102820001ffa80f82949304602f08af980b9284c0d
:102830002378053633b1257ba1682a46304602f05d
:102840007ff950b3234b06221a700020bde8f883ad
:10285000214b1878e0b15b68c9f8003047b308f144
:102860000302b2f5817fedd83846002102f02afd3f
:10287000d9f800305b7b3a2230333b707a700237f4
:10288000b8f1000f17d100233b700120bde8f88399
:10289000104b0d221a70bde8f883c5f57f43fb335a
:1028a0009844c9f800402e441ffa88f8002fd6d16a
:1028b0000120bde8f88342463846314608f1010858
:1028c00002f0b0fb17fa88f7dde700bf8055000083
:0c28d00058250020cd2500207824002091
:020000040000fa
:1028dc0070b582b00024019400284bd0224601a987
:1028ec00fff790ff002842d0264d2b78012b06d005
:1028fc00254b07221a704ff0ff3002b070bd019ac1
:10290c002c70967b012e07d01f4a2b704ff0ff3096
:10291c000723137002b070bd536894735b6803b3e4
:10292c00507b9847184b019918708e73e8b9174b68
:10293c005a68914200d11870154b5a68914204bfe5
:10294c0000221a70134a107800230b70c1e901336e
:10295c000b7310b15068814212d001232b700020f0
:10296c00cbe7094b967317221a7001232b704ff08b
:10297c00ff30c2e7044b13221a704ff0ff30bce754
:10298c001370eae7ce250020cd2500208022002000
:08299c004825002078240020ea
:020000040000fa
:1029a4007d1d0100632c001e9601a01e5a01001f0c
:1029b4000806101f0606201f0806301f0806401fc1
:1029c4000606511f0700591f521f5b1f541f5d1f2e
:1029d400561f5f1f601f0806701f0e00ba1fbb1f23
:1029e400c81fc91fca1fcb1fda1fdb1ff81ff91f1f
:1029f400ea1feb1ffa1ffb1f801f0806901f080623
:102a0400a01f0806b01f0400b81fb91fb21fbc1fc7
:102a1400cc1f0100c31fd01f0206e01f0206e51fe2
:102a24000100ec1ff31f0100fc1f4e2101003221a5
:102a340070211002842101008321d0241a05302c36
:102a44002f04602c0201672c0601752c0201802cd6
:0c2a54006401002d260841ff1a03000059
:020000040000fa
:102a6000431c44d00378002b41d0436870b55d68a7
:102a7000ac69002c41d0012a0e46044620d0022a1f
:102a80000cd16a6a002a41d000220273997b012985
:102a900025d0072323734ff0ff3070bd002202734f
:102aa000997b0129f5d19a733146d4e901305b68ed
:102ab0009b699847636801229a7318bb304670bdc2
:102ac000ea691ab300220273997b0129e1d19a7352
:102ad000d4e901305b68db6998478119e5e79a73af
:102ae000d4e901305b685b6a98478119dde70a4bde
:102af00009221a704ff0ff307047172303734ff00d
:102b0000ff3070bd20734ff0ff3070bd172323736b
:0c2b10004ff0ff3070bd00bfcd2500204d
:020000040000fa
:102b1c00b0f5803f20d2284a284bb0f5805ff0b446
:102b2c0041f67d512cbf1346612186b204330de072
:102b3c008e420ed333f8022cd4b26518a8424fea59
:102b4c0012220adb04338ab133f8041c1f46002915
:102b5c00eed13046f0bc70477047082af9d8dfe850
:102b6c0002f026201d1a1714110e0a0007eb44035d
:102b7c0037f81410dae7a6f5e356b6b2e9e7503e9b
:102b8c00b6b2e6e70836b6b2e3e71a3eb6b2e0e70d
:102b9c00303eb6b2dde7203eb6b2dae7103eb6b252
:102bac00d7e7711a01f00103f61ab6b2d1e7411a50
:102bbc0033f81160cde700bfa42900003c0e0000e3
:020000040000fa
:102bcc0070b590b00d46019003a901a81646fef70a
:102bdc0029fa0446e0b95db1039b069404a821468a
:102bec00049300f087f9e8b1042839d100232b7045
:102bfc0076b10398c169c36a99420cd10378032b4f
:102c0c000ed0042b0cbf642327231844036b3360b2
:102c1c00204610b070bd01f051ff08bb0398ede7e2
:102c2c004323f2e704a80121fff78cf80028dbd13d
:102c3c000b986a1e431e0a3013f8011f02f8011f7d
:102c4c008342f9d12b46002103f80b1f13f8012df9
:102c5c00202acdd1ab421970f8d1002ec9d1d7e7bb
:082c6c000446204610b070bdc3
:020000040000fa
:102c7400f0b5c3b004464ff4817201a8002102f0fc
:102c84001ffb00230093002c30d0204601aa694684
:102c9400fff7bcfd78b1009b5868426f6ab31b49cb
:102ca4000a78012a0bd01a4b12221a704ff0ff3007
:102cb40003e0307027704ff0ff3043b0f0bd154c87
:102cc400277807bb9d7b124e2270012d63600a702a
:102cd4003770f0d19f73436f01a904f1080098473e
:102ce40063689d730028e4d12046e6e7084b13226d
:102cf4004ff0ff301a7043b0f0bd054b17221a7025
:102d04004ff0ff30d9e70a70cde700bfce25002091
:082d1400cd2500204825002018
:020000040000fa
:102d1c00f0b583b000230e4617468df802300193b0
:102d2c00adf80030e0b11a4601a9fff76bfd0028a1
:102d3c002dd0019b5c68a26b002a31d05a7b9d7b05
:102d4c0030328df80020012d4ff03a02adf8012001
:102d5c000cd0164b07221a704ff0ff3003b0f0bda9
:102d6c00134b1a78b2b15b680193e3e700229a73b4
:102d7c00a36b3a463146684698470c4a019b107043
:102d8c00003018bf012040429d7303b0f0bd4ff0de
:102d9c00ff30e3e7054b0d221a704ff0ff30dde7f3
:102dac00024b17221a704ff0ff30d7e7cd250020c9
:042dbc007824002057
:020000040000fa
:102dc000002844d1f8b5254ca579002d42d1d1e990
:102dd00007308e694f6aa66501224ff001169042b6
:102de000257084f8605063646766a364e065c4e995
:102df0001355a27126631d6007d9243343f8043ca0
:102e000043f8242b01329042f8d140f201164b686e
:102e10000d880a7a4869a4f8946023640b7ca0604a
:102e2000a58684f83c204ff0ff3501220020a563e1
:102e300084f83d2060711bb9012323700020f8bd88
:102e4000497c02f06dfa012323700020f7e74ff070
:102e5000ff3070474ff0ff30f8bd00bf90230020d7
:020000040000fa
:102e6000204a214b2149002010741a469962536868
:102e7000db06fcd442231c49c2f88430d1f88430ec
:102e80005806fbd51a4b002277219a631a465963dc
:102e9000d36b5907fcd40223154982f83030cb6b31
:102ea0009b07fcd4124a136c03f00303032bfad1e3
:102eb000104a01235371d378d807fcd50a4a0e4b28
:102ec000136253685907fcd40c4b074953624b6893
:102ed0001b07fcd4074b6ff07f4140f2ff72196172
:102ee0005a61704700140040001c00400601300089
:102ef0000010004000080040070101000701020027
:020000040000fa
:102f0000b1f5001f3ed2ca063cd1f8b50c46816827
:102f1000046106460768b1b17d896d02ac4233d3c6
:102f2000384607e0012826d97b69834223d9a54288
:102f30002bd83068fff704fc431c0146a4eb0504c2
:102f4000f0d10120f8bd3b78022b16d83b89b3ebba
:102f5000541f10d97b6ab361716163b1c4f3080275
:102f6000303703eb54241744c6e906470020f8bd68
:102f70000023c6e905130220f8bd7b6a002be5d0cb
:102f80001946c9e7022070477b69023b8a1e9a42b4
:102f9000eed27b89b86a02fb0303b361dce700bfb2
:020000040000fa
:102fa000f8b501f045f848b104781e4e982202fbae
:102fb00004f2b11891f89530012b00d0f8bdcb6c1c
:102fc000002581f8955073b1a4465f68196ab8422c
:102fd0001ad01d460b460029f7d1982303fb0c633a
:102fe0006446db6c03b10025982303fb04640022d4
:102ff00094f860302565013b012184f86030e2716e
:10300000827084f89510f8bd3db12962196ab41830
:10301000a76c1f62a3640b46dde7b7181d46f96471
:08302000f5e700bf902300203a
:020000040000fa
:103028002de9f04105692035b5f5001f044604d3a4
:103038000023a3610420bde8f08183698bb3c5f345
:1030480008070668efb941690133836101b37389e1
:10305800013b13ea552814d13046fff76dfb0128d0
:103068001dd9431c19d073699842e1d2023b821ed4
:103078009a42606103d27389b16a02fb0318c4f8eb
:10308800188030363e44e66125610020bde8f081b5
:103098003389b3eb551ff4d8cae70120cbe70220e8
:0830a800c9e70420c7e700bfdf
:020000040000fa
:1030b000431c2dd061b35ab303787bb343682de929
:1030c000f0415c68e46d7cb30025057393f80e80d5
:1030d000b8f1010f05d0072303734ff0ff30bde8af
:1030e000f0819d731746d0e901325b680e460446b5
:1030f000db6d394630469847636883f80e8010b11f
:103100002846bde8f08184f80c804ff0ff30e6e7f8
:10311000084b13221a704ff0ff307047054b0922fd
:103120001a704ff0ff307047172303734ff0ff30d2
:08313000d5e700bfcd2500200a
:020000040000fa
:10313800f5370000b9350000254a00002d5500007c
:10314800000000001951000039550000000000007f
:1031580000000000000000003151000000000000e5
:10316800b155000000000000995500000000000063
:1031780000000000a15500005d4e000000000000a6
:10318800000000000000000000000000a955000039
:103198000000000000000000000000000000000027
:1031a80000000000f54c000049510000615100008a
:0831b80000000000000000000f
:020000040000fa
:1031c00008b5194b9847194b9847eff3108172b621
:1031d000174ad2f8883043f47003c2f88830bff33e
:1031e0004f8fbff36f8f01b962b6124a936823f015
:1031f000010393601346da6812f0010ffbd10d4b07
:1032000024225a6001229a6001f0acfb0a4b23f0a1
:103210007f03074a9360094b9847094b9847094b2e
:10322000984702f045f9fee79b4e00009b4e0000d8
:1032300000ed00e00060004100000000253f0000bc
:083240009b4e00009b4e0000b4
:020000040000fa
:10324800f0b5c3b005460e4601a84ff481720021bf
:10325800002402f033f800941db316b3284601aadf
:103268006946fff7d1fa10b3009b5a68916a09b30f
:103278009f7b134d012f2c7005d007232b704ff027
:10328800ff3043b0f0bd9c73936a314601a898475c
:1032980028700030009b18bf012040429f7343b044
:1032a800f0bd074b13221a704ff0ff30e9e74ff0db
:1032b800ff30e6e7024b17221a704ff0ff30e0e7c5
:0432c800cd250020f0
:020000040000fa
:1032cc0070b590b00191002834d0044603a901a830
:1032dc001546fdf7a7fe18b10023236010b070bd92
:1032ec00039b0199049304a8fcf7c6ff0028f3d1b3
:1032fc009df93b30002b20db9df8163013f01000ad
:10330c0001d00420e8e703990b9b0e785a8b032e0f
:10331c0004bf9e8a42ea0642a260db69ce88e36063
:10332c0005f0010200232160a68022746374e3611e
:10333c006361d3e7092010b070bd0620cce700bf55
:020000040000fa
:10334c00809a45418e418f804545454949498e8f2c
:10335c009092924f994f555559999a9b9c9d9e9f2f
:10336c0041494f55a5a5a6a7a8a9aaabacadaeaf30
:10337c00b0b1b2b3b4b5b6b7b8b9babbbcbdbebfc9
:10338c00c0c1c2c3c4c5c6c7c8c9cacbcccdcecfb9
:10339c00d0d1d2d3d4d5d6d7d8d9dadbdcdddedfa9
:1033ac00e0e1e2e3e4e5e6e7e8e9eaebecedeeef99
:1033bc00f0f1f2f3f4f5f6f7f8f9fafbfcfdfeff89
:020000040000fa
:1033cc0070b5c2b005464ff4817201a800210024eb
:1033dc0001f072ff009425b3284601aa6946fff755
:1033ec0011fad8b1009b5a68116b01b39e7b134d37
:1033fc00012e2c7005d007232b704ff0ff3042b0fc
:10340c0070bd9c73136b01a8984728700030009b0b
:10341c0018bf012040429e7342b070bd4ff0ff3088
:10342c00ede7064b13221a704ff0ff30e7e7034b22
:10343c0017221a704ff0ff30e1e700bfcd250020b6
:020000040000fa
:10344c00f8b50c46164601211a461d4600f066fedc
:10345c0018b3032e45f0806506f0030c1ed8bcf1a2
:10346c00000f0bd026f003014b1e264421442b44a5
:10347c0013f8012f01f8012bb142f9d10d4ad36990
:10348c00bff34f8fbff36f8f0b4b1360d3695b058b
:10349c00fcd5d36943f48063d361f8bd26f00302f5
:1034ac00224421462f1bcb5941f8043b9142fad1bf
:0c34bc00d5e700bf003400420200000110
:020000040000fa
:1034c800f8b50d46164603211a461c4600f028fe9c
:1034d80010b3032e44f0806406f0030c1dd8bcf131
:1034e800000f0bd026f00303591e26442344294419
:1034f80011f8012f03f8012bb342f9d1bff34f8f15
:10350800bff36f8f0a4a0b4b1360d3695b05fcd579
:10351800d36943f48063d361f8bd26f003022a44db
:103528002946671b0b68cb5104319142fad1d6e783
:08353800003400420200000112
:020000040000fa
:1035400010b584b00191002831d0044603a901a828
:10355000fdf76efd18b10023236004b010bd039b7e
:10356000236001992046fcf78dfee0b994f92b30d9
:10357000002b1fdba379db0617d5039be1691878c5
:103580004a8b032804bf898a42ea0142a260db8891
:10359000a38000212046fff7b3fc042805d00028b3
:1035a000d9d104b010bd0428d5d10520d3e7092016
:0835b00004b010bd039beae723
:020000040000fa
:1035b80000282ed130b5184c227883b032b343f6a8
:1035c8003025024601a98df80600adf8045000f038
:1035d800bffb78b9114a207013786bb9104b1a7871
:1035e80042b15a6822b10f4952780978914201d103
:1035f80000221a7003b030bd136923b109495b7802
:1036080009789942ead100231370e7e70b2003b049
:1036180030bd0b20704700bf10180020501a002042
:0836280080240020c4250020cd
:020000040000fa
:1036300070b582b000240e4601a98df80640adf8a1
:10364000044001f0b5fa68b19df80610144d234608
:103650001c2201e055f833208a4205d001330d2b9e
:10366000f8d1002002b070bd0d4a02ebc3035b68c5
:10367000b3f5805ff5d301221c0a4ff480757360a7
:1036800032601b0bb260726132624ff480510022d3
:10369000f5603461c6e90613726202b070bd00bf06
:0436a000603800008e
:020000040000fa
:1036a400012932dd2de9f04301f1ff3983b01646db
:1036b400804600eb09070446002509e09df8003028
:1036c40004f8013b0a2b05f1010518d0a7420fd0dd
:1036d40001ab012269463046fef7d2fb019b012b68
:1036e400ecd00023237035b9002003b0bde8f0838b
:1036f400002308f80930404603b0bde8f0830023f6
:103704004046237003b0bde8f0830023037000201b
:04371400704700bf3b
:020000040000fa
:1037180038b5431c26d029b30378ebb143685a68ff
:10372800926f2ab3002202739d7b012d04d00723d8
:1037380003734ff0ff3038bd9a730446d0e9013067
:103748005b689b6f98476168031c024618bf01239a
:103758008d735842227338bd084b09221a704ff0f6
:10376800ff3038bd054b13221a704ff0ff3038bdbb
:10377800172303734ff0ff3038bd00bfcd2500205d
:020000040000fa
:1037880038b50446807801282dd0022812d0a56ac1
:10379800e068636105fb0202012361622261a37094
:1037a800236ca06b5b69002584f83d509847c0b135
:1037b8000223a370236ca06b1b6a9847c0b2012830
:1037c80000d038bd6369013b6361002bf9d0a16a61
:1037d8002269636aa0700a440b4422616362002074
:0c37e80038bd022038bd616a2269d9e7b3
:020000040000fa
:1037f40030b5154a137883b033b110b9134c23781c
:1038040063b10b2003b030bd1149104c114d0b7046
:10381400012123702b7011700028f2d143f630255a
:103824000023012201a90c48adf804508df806309c
:1038340000f090fa18b90123237003b030bd0d28ad
:10384400f9d003b030bd00bfd025002010180020ef
:0c385400501a00208024002020180020c2
:020000040000fa
:103860001c000000000000101b0000000000000809
:103870001a0000000000000419000000000000020f
:103880001800000000000001170000000000800088
:10389000160000000000400037000000000020007b
:1038a00014000000000010001300000000000800d9
:1038b00012000000000004001100000000000200df
:0838c0001000000000000100ef
:020000040000fa
:1038c800f0b54ff0ff3583b0a84201950ed00346fe
:1038d800007858b158684468e468e4b1867b012ee2
:1038e8000bd0072228461a7303b0f0bd0d4b0922ee
:1038f8004ff0ff301a7003b0f0bd1c4600238373ed
:10390800d4e901305f6801abff68b84763689e730c
:1039180028b90198e8e7172228461a73e4e72073c4
:083928002846e1e7cd2500204f
:020000040000fa
:10393000f0b4174dadf5806dadf104070df57f7c4a
:1039400000263346082200bf03f001045b0804b1df
:103950006b40013af8d147f8043f674506f101068c
:10396000efd14ff0ff3269b101444ff0ff3200bf99
:1039700010f8013b5340dbb281425df8233083ea0b
:103980001222f5d110460df5806df0bc704700bfd6
:043990002083b8edeb
:020000040000fa
:1039940010b50446c078012829d0022811d0e06a65
:1039a400e168636100fb021101232161e370236c70
:1039b400a06b9b68002284f83d209847a8b102239d
:1039c400e370236ca06b1b6a9847c0b2012800d037
:1039d40010bd6369013b6361002bf9d02369e26a7e
:1039e400e07013442361002010bd022010bd216942
:0439f400dde700bf4c
:020000040000fa
:1039f800124b994201d000207047f0b4104b114e81
:103a0800114c124a124f00251d8006444af2045cec
:103a18000b46301950f8045f43f8045ba342f9d110
:103a28005161a2f804c0538adb07fcd51034bc42ac
:103a380001f11001ecd10120f0bc7047004080007a
:103a4800b2250020ecbf7fff1040800000400041fd
:043a58001042800098
:020000040000fa
:103a5c0016494b681a783ab39a69904200d070476d
:103a6c0070b58c68027e217a00209142187005d1c5
:103a7c006168981c053101f091fb00b170bd2068a4
:103a8c00fef726ff0028f9d1094d2b681bb16a6897
:103a9c00216802209847ab68002befd0ea682168b8
:103aac000220bde870401847704700bf0427002073
:043abc006825002059
:020000040000fa
:103ac00010b590b003a9019001a8fdf7b1fa08b1b3
:103ad00010b010bd039b0199049304a8fcf7d2fb1e
:103ae00090b99df93b30002b13db9df81630db06b7
:103af00013d5039b0b991c784a8b032c04bf898a2e
:103b000042ea01421a61e3e7042808bf052010b029
:103b100010bd039b069a1a61dae70520d8e700bfbb
:020000040000fa
:103b200038b5431c1bd00378cbb143685a6852693f
:103b3000dab1002202739d7b012d04d007230373a9
:103b40004ff0ff3038bd9a730446d0e901305b680e
:103b50005b69984763689d7360b9207038bd074bf7
:103b600009221a704ff0ff3038bd172303734ff04e
:103b7000ff3038bd20734ff0ff3038bdcd25002019
:020000040000fa
:103b800038b5431c1fd00378ebb143685a68d26f35
:103b9000fab1002202739d7b012d04d00723037329
:103ba0004ff0ff3038bd9a730446d0e901305b68ae
:103bb000db6f984763689d7308b9207038bd207328
:103bc0004ff0ff3038bd054b09221a704ff0ff301f
:103bd00038bd172303734ff0ff3038bdcd250020cb
:020000040000fa
:103be00038b5431c1fd00378ebb143685a68926f15
:103bf000fab1002101739d7b012d04d007230373cb
:103c00004ff0ff3038bd99730446d0e901305b684e
:103c10009b6f98476168031c024618bf01238d7390
:103c20005842227338bd054b09221a704ff0ff30fd
:103c300038bd172303734ff0ff3038bdcd2500206a
:020000040000fa
:103c4000c9b2f8b50446f1b103469a0718461ed129
:103c50004ff001354d431e4656f8044b84ea0507e4
:103c6000a4f10132a7f1013022ea040220ea0700a0
:103c7000024312f0803f11d0184613f8012b2ab1ed
:103c80008a42f9d102e001f083fa2044f8bd13f82a
:103c9000012b002afad08a42d7d1f7e73346dae778
:020000040000fa
:103ca00038b50c4600f0c4f940b1027812499823a7
:103cb00003fb021393f89400012802d04ff0ff3069
:103cc00038bd5d6ce0b200ebc00005eb8000002564
:103cd00083f89450c368a3424ff0980303fb021289
:103ce0004ff0010308bf90f9080082f8943018bf24
:0c3cf0004ff0ff3038bd00bf90230020d3
:020000040000fa
:103cfc0010b4144c03786363837840781b0403f48a
:103d0c00f813034343f09003a363a36b42b10b4638
:103d1c000a44c1f18061585c03f8010b9342fad15b
:103d2c00bff34f8fbff36f8f064a074b1360d369f6
:103d3c005b05fcd5d3695df8044b43f4806301202b
:0c3d4c00d3617047003400420200000107
:020000040000fa
:103d580010b584b01446019003a80091039100f0b7
:103d680075fd00281bdb0f4a52f820301bb10021db
:103d780042f820101970019b3bb10b4911f8101043
:103d880059700021197042f8203014b9204604b047
:103d980010bd01a96846fdf747f904b010bd0b2016
:0c3da80004b010bdb8250020c425002088
:020000040000fa
:103db40010b94ff0ff307047f8b50f4e0f4f002485
:103dc400054621463470c6e9014406f11000ff227d
:103dd40001f076fa0a4b0b490b4a34732e786d685e
:103de4001c70c3e901441c7301238b7320461670b5
:103df40055603b70f8bd00bf80220020ce25002016
:0c3e0400482500205825002088250020bb
:020000040000fa
:103e100038b5431c1cd00378d3b143685a68d269c3
:103e2000e2b1002202739d7b012d04d007230373ae
:103e30004ff0ff3038bd9a730446d0e901305b681b
:103e4000db699847636800289d73b8bf257338bd48
:103e5000054b09221a704ff0ff3038bd172303734a
:0c3e60004ff0ff3038bd00bfcd25002022
:020000040000fa
:103e6c0038b5431c1cd00378d3b143685a68526ae6
:103e7c00e2b1002202739d7b012d04d00723037352
:103e8c004ff0ff3038bd9a730446d0e901305b68bf
:103e9c005b6a9847636800289d73b8bf257338bd6b
:103eac00054b09221a704ff0ff3038bd17230373ee
:0c3ebc004ff0ff3038bd00bfcd250020c6
:020000040000fa
:103ec80010b501f031fa00f07bfd00f02dfdb8b11e
:103ed800fef7c2ff00f08cfd01f074fb0b490c4c9f
:103ee8000020fef769ff0b492060002000f032ff38
:103ef80060600948fff75affbde8104000f096bb24
:103f08004ff4404000f0c6ffe2e700bf184b000046
:0c3f1800a42500203c560000b855000015
:020000040000fa
:103f24000e4a38b5002313600d4a0e4c13600e4a36
:103f34000e4d13600e4a13600e4a13600e4a53620c
:103f440013610123936001f038f901f036f9ac42b2
:103f540000d338bd54f8043b9847f8e7c025002047
:103f64003424002070020000302400207402000079
:0c3f7400282400202c24002038240020e9
:020000040000fa
:103f800030b4134c134d00232a8823800c071cd116
:103f90002c88a4b224f0300444f020040346091a0b
:103fa00092b22c801030cc1853f8045b2560834209
:103fb000f9d108490b889bb202f0300223f030039c
:103fc0001a4301200a8030bc7047184630bc704745
:083fd000b22500200040004171
:020000040000fa
:103fd80010b44378124c0078606343f4025343f002
:103fe8001003a363a36b42b10b460a44c1f180617d
:103ff8001878585401339342fad1bff34f8fbff367
:104008006f8f074a074b1360d3695b05fcd5d369eb
:104018005df8044b43f480630120d361704700bf0f
:08402800003400420200000117
:020000040000fa
:10403000421e03321fd8f0b4c0f30724c4b910499c
:104040000346486edab290424ff0980510d98e6d53
:104050001201b01887689f420ad183786bb1b35cb4
:1040600005fb03f54b57022b18bf0020f0bc70472f
:104070000020f0bc7047002070471846f6e700bfec
:044080009023002069
:020000040000fa
:1040840018bb134870b504686069451c82b011d030
:10409400656a2d692d68b5f5007f0dd3a5680226e4
:1040a40084f821600093ad6813460a4604f11c01ac
:1040b400a847e06902b070bd4ff40076b6fbf5f591
:1040c40005fb02f205fb03f3e8e74ff0ff3070470e
:0440d400042700209d
:020000040000fa
:1040d80070b50c46154600f02dfe00b970bd0d4aae
:1040e8000d4b11780022c3e9002202209a600622b3
:1040f80018709a7011b14ff480629a80074e064882
:10410800f2682b46214614694ff48072a0470123b8
:10411800337270bdcb25002098250020382500205b
:020000040000fa
:1041280070b4124d83882a6346780478827844ea0a
:1041380006446c6384791a431cb103891a4342f01c
:104148004002837a0bb142f48042c37a07480903dc
:104158001b0401f4405103f4f81311430b4343f0db
:10416800b0038363836b70bc012070470034004246
:020000040000fa
:1041780010b5104a82b0117a00238df8073011b9b2
:10418800012002b010bd0c48d268837040f205636c
:104198005468038001220df10701a04730b19df852
:1041a8000700c04300f0010002b010bd022002b0b9
:0c41b80010bd00bf38250020c8250020e5
:020000040000fa
:1041c40030b4104d104c002322882b804d0716d19b
:1041d400238805689bb223f0300343f01003238047
:1041e40023880d6092b29bb223f0300302f03002b8
:1041f4001a4343684b600120228030bc7047184644
:0c42040030bc7047b22500200040004193
:020000040000fa
:104210007f2801d880b27047b0f5803f03d240f2ca
:10422000b513994201d00020704710b40a49002309
:10423000c72203e0802b0cd031f8022f82429cb2bf
:1042400003f10103f6d104f1800080b25df8044b64
:0c42500070470020fae700bfcc210000fe
:020000040000fa
:10425c0038b5431c0ed0027862b1426851680446ee
:10426c00086a60b100202073957b012d0ad00722cb
:10427c00227338bd084b09221a70002038bd172252
:10428c00227338bd9073d4e901305b681b6a984780
:0c429c0063689d7338bd00bfcd25002075
:020000040000fa
:1042a800b8b10f4a137873b110b50e4c5168a28893
:1042b8000346206818609a800a7b8968581d00f0b8
:1042c800adfe002010bd084b0d221a704ff0ff30d4
:1042d8007047054b13221a704ff0ff30704700bf2c
:0c42e8007824002080550000cd25002027
:020000040000fa
:1042f400430930b403f5020303f5807300f01f058e
:10430400db0103eb5504c00794f83020d2b24bbf55
:1043140022f0f00222f00f0242ea011111432b4471
:10432400c9b284f8301093f8402042f0010283f8b7
:08433400402030bc704700bfbf
:020000040000fa
:10433c00f8b5104d0446174605ebc0060a46022098
:10434c0039464ff0ff3705f8340077602046fcf70c
:10435c005fffb842706003d10ae0204600f024fef3
:10436c0015f934000228f8d0003018bf0120f8bd30
:08437c000420f8bd902500208b
:020000040000fa
:10438400431c19d003460078b0b1ff2a10b4144678
:1043940028bfff246ab11a7c0a7052b10c4410334e
:1043a400013104e013f8012f01f8012b0ab1a142f5
:1043b400f8d15df8044b7047024b09221a700020b3
:0843c400704700bfcd25002069
:020000040000fa
:1043cc00e8b91048f0b504686069451c83b014d096
:1043dc001f46a368db690d4616469847a168d4f8ba
:1043ec0014c0022384f821300097331a2a46604601
:1043fc008d6904f11c01a847e06903b0f0bd4ff0d2
:08440c00ff3070470427002077
:020000040000fa
:104414000f4b70b55d682b785bb1014604460522ed
:104424000c4800f08bfba91c28b1204600f0bafe12
:1044340030b1002070bd601d00f0b4fe0028f8d13a
:10444400ab699a6858691368bde87040184700bfa3
:08445400042700208855000038
:020000040000fa
:10445c0038b5044600f0ccfe002c17db63099b003a
:10446c0003f1604303f5614301221d6804f01f044e
:10447c00e54002fa04f41540c3f88040bff34f8fb7
:10448c00bff36f8f00f0befe284638bd002500f04c
:08449c00b9fe284638bd00bf3f
:020000040000fa
:1044a400f0b5002503462f4695422e4607d313f058
:1044b400030218bf0122181a02eb9000f0bd1c7809
:1044c40034b101f8014b01330135ede70f550134e7
:1044d40093f801e0a64506eb040501eb040cf5dcba
:0644e40002336146e0e72f
:020000040000fa
:0244ea00fee7eb
:020000040000fa
:1044ec0030b58fb00d46019002a901a8fcf79afdda
:1044fc00044610b120460fb030bd019902a8fbf75d
:10450c00bbfe04460028f5d19df93330002b06dba9
:10451c00002defd0294602a8fdf7d2f8eae70624d1
:04452c00e8e700bffd
:020000040000fa
:10453000f8b50f4d044605ebc0064ff0ff370220db
:1045400005f8340077602046fff79cfdb8427060a4
:1045500003d10ae0204600f02dfd15f934000228b1
:10456000f8d0003018bf0120f8bd0420f8bd00bf0e
:044570009025002072
:020000040000fa
:1045740010b5054c227832b9044b13b10448aff39b
:1045840000800123237010bd0025002000000000de
:104594000000000008b5034b1bb103490348aff307
:1045a400008008bd00000000042500200000000079
:020000040000fa
:1045b40070b50446407801281d4617d002280dd056
:1045c400e66fe368012006fb02336070226ca06b87
:1045d40016692a46b04738b102236370236ca06b76
:1045e4001b6a9847c0b270bd022070bd0023ede77e
:020000040000fa
:1045f40038b50c4c0c48257800240460c0e901440b
:10460400eb24047006248470c47215b14ff48064e2
:104614008480064c0448e568ed68a84700232372ab
:1046240038bd00bfcb250020982500203825002068
:020000040000fa
:104634000e4bda684ff6ff010a4042f0bf6242f4c3
:104644000032da60bff35f8f62b65a6a42f48022a6
:104654005a625a6942f010025a615a6a42f40032ac
:104664005a625a6a42f480325a62704700ed00e09e
:020000040000fa
:1046740078b103686bb11a785ab110b5da88044678
:104684008088904282b008d0092000230b6002b0d9
:1046940010bd002309200b6070475878019100f089
:1046a400bdff10f001000199eed12368eee700bfd1
:020000040000fa
:1046b40030b583b00d4601a90446fff7d9ff88b988
:1046c4000146204685b1fdf741fb10f0fb0f09d1ef
:1046d40029462046fcf7f8ff2046fef7a3fc0428f1
:1046e40008bf002003b030bdfef708fc03b030bda6
:020000040000fa
:1046f4000b4b0622c72810b518705a7007d0094a08
:1047040012780120987012b14ff480629a80064c9e
:104714000348e3681b6898470223237210bd00bf57
:0c472400ac250020cb250020382500200b
:020000040000fa
:1047300070b50c4e0c4cf368002540f26662228086
:10474000c4f802501b6829462046984748b1f368d0
:1047500040f299622280294620461b68bde87040dd
:0c476000184770bd38250020ac25002053
:020000040000fa
:10476c000c4a30b4091a0025031f0c1d00f5fe700d
:10477c001580e21853f8041f11608342f9d1064ae0
:10478c00138803f0300313b94af2035393800120ca
:0c479c0030bc7047b225002000400041f6
:020000040000fa
:1047a800f0b40c4c246825781db14ff0ff30f0bcf4
:1047b8007047a260084a25714ff0ff370126226032
:1047c8002061e1802046237684f8205067612673b3
:0c47d800f0bc70470427002001006100c5
:020000040000fa
:1047e400a0f50003a3f58043b3f5007f0dd802467e
:1047f400074b084810b44ff42541002404800120dd
:104804005a6199805df8044b70470020704700bfdf
:0848140000400041b225002024
:020000040000fa
:10481c008378abb183880b4a116343f02001437852
:10482c00084a007850630b4343f010039363d36939
:10483c005b05fcd5d36943f48063d36101207047d9
:08484c001946ece700340042bc
:020000040000fa
:10485400016869b10a4601e03a2b06d012f8013b1f
:104864001f2bf9d8074b187870478b1c9a4202d03b
:104874004ff0ff3070470b78302bf9d102600020e5
:08488400704700bfcc250020a5
:020000040000fa
:10488c00012901d00020704738b515460c4600f0c0
:10489c0025fc78b103691868b0f5007f36bf4ff47a
:1048ac0000712146b1fbf0f15868b0fbf1f100202a
:0848bc00296038bd204638bd1b
:020000040000fa
:1048c4000c4b70b55c68267836b10d460530a11cda
:1048d40000f068fc10b10026304670bd63780f2be1
:1048e40002d8184600f0c4fc002328712b6030461f
:0848f40070bd00bf0427002085
:020000040000fa
:1048fc0010b488b1012802d1ff2382f82130084b73
:10490c00dc6834b19b7d23b92346d2785df8044b27
:10491c0018475df8044b704782f82100efe700bfa1
:04492c00042700203c
:020000040000fa
:104930004ff4fa6000bf0138fcd14ff00053084932
:104940001a688a4200d0704759689142fbd19a6830
:104950008a42f8d1d968914204bf18600120f2e779
:044960004d4348502b
:020000040000fa
:1049640070b50a480a4d4ff6ff76016811b94368dd
:1049740003b970bd83684268334000f10c0455f8f4
:1049840023302046984704eb8000eee7fc0b000040
:04499400b05200001d
:020000040000fa
:1049980001530000294f0000b94e00000d4f0000e0
:1049a800d5510000a13c0000b94e0000454f000061
:1049b800f14e00003d180000a12f000091250000d5
:020000040000fa
:1049c8000a4b0122772183f8482083f8492083f88d
:1049d8004a2083f84b2083f8341083f8351083f885
:1049e800ca2083f8cb2083f8b510704700800041b7
:020000040000fa
:1049f800094b10b4012240f201644ff4ee40022149
:104a08001a605c601a4698601960136a9b07fcd5a7
:0c4a18005df8044b704700bf0034004202
:020000040000fa
:104a24007ab938b5084c25784db901222270046052
:104a340004f11000fef748fc00b1257038bd0220d7
:0c4a440038bd0220704700bf501a00204f
:020000040000fa
:104a500008b5fff7edfa50b10378064a982101fb3b
:104a600003231a6c986b136a9847c0b208bd0220e2
:084a700008bd00bf90230020e7
:020000040000fa
:104a7800084a30b4091a0025031f0c1d00f5fe7002
:104a88001580e21853f8041f11608342f9d1012000
:084a980030bc7047b22500207c
:020000040000fa
:104aa0007f2804d940f2b513994201d00020704705
:104ab000ff28fbd800f10040024b803833f810008b
:084ac000704700bfcc2100008b
:020000040000fa
:104ac80038b50a460c46054600f130010123407806
:104ad800fff72afd0028034616bf4ff0ff340346b0
:084ae8000123ec62184638bd01
:020000040000fa
:104af000074a1378022b0ad030b4064c04ebc305e6
:104b000044f8330001331370696030bc704770475c
:084b1000cf25002068250020dc
:020000040000fa
:104b180000000000184d0000000000000000000028
:104b2800010400001000002078250020dc2400206b
:084b3800010000000100000073
:020000040000fa
:104b400030b57ab101380a4410f8013f0d4633b14f
:104b500011f8014b1cb1914201d0a342f4d02a7844
:084b6000981a30bd1046fce775
:020000040000fa
:104b680048b1022806d1064b0021082283f82c11ef
:104b78001a7070477047024b012283f82c21704746
:044b8800d425002010
:020000040000fa
:104b8c00bff34f8f0549064bca6802f4e06213432a
:104b9c00cb60bff34f8f00bffde700bf00ed00e01f
:044bac000400fa0502
:020000040000fa
:104bb000064b0748db6810b440f2af620024028065
:104bc00084705b685df8044b032218473825002089
:044bd000c8250020d4
:020000040000fa
:104bd400074a936823f001039360d368db07fcd48e
:104be4005368012123f0020353609160704700bfb2
:044bf400006000411c
:020000040000fa
:104bf800074a936823f001039360d368db07fcd46a
:104c08005368012143f0020353609160704700bf6d
:044c180000600041f7
:020000040000fa
:104c1c00074a936823f001039360d368db07fcd445
:104c2c005368012123f0040353609160704700bf67
:044c3c0000600041d3
:020000040000fa
:104c4000074a936823f001039360d368db07fcd421
:104c50005368012143f0040353609160704700bf23
:044c600000600041af
:020000040000fa
:104c6400064b074a002119805061138803f0300372
:104c740013b94af20353938001207047b2250020f0
:044c840000400041ab
:020000040000fa
:104c880010b4064b064c01464af20152002020801f
:104c9800012059619a805df8044b7047004000413b
:044ca800b225002011
:020000040000fa
:104cac0000b583b0019001a8fff7cefd031ea5bf90
:104cbc00034a00200b20137003b05df804fb00bf07
:044ccc00cc250020d3
:020000040000fa
:104cd0000eb4431c05d01723037303b04ff0ff300d
:104ce0007047034b09224ff0ff301a7003b0704732
:044cf000cd250020ae
:020000040000fa
:104cf40038b5074c25784db9034601222270201d92
:104d04001c60fef71bfc00b1257038bd092038bdbe
:044d140080240020d7
:020000040000fa
:104d1800cd220000e951000059500000c1540000a4
:104d2800f5450000d94000000000000031360000c1
:044d380079410000bd
:020000040000fa
:104d3c00054b0648db6840f2066200210280c0f891
:104d4c0002101b68184700bf38250020ac25002036
:020000040000fa
:104d5c00064b1a7832b90968d96040f201215a60c1
:104d6c00198070474ff0ff30704700bf3825002086
:020000040000fa
:104d7c00054b0649088a1a8802431a801a8892b28f
:104d8c000a821888704700bfb225002000400041fd
:020000040000fa
:104d9c00430903f5020303f5807300f01f0000ebd9
:104dac00c31090f8403003f0fe0380f84030704799
:020000040000fa
:104dbc0038b1012804d1054bff2103f8321070479c
:104dcc007047024b03f83200704700bf902500205b
:020000040000fa
:104ddc00431c04d0172303734ff0ff307047034b71
:104dec0009221a704ff0ff30704700bfcd2500200c
:020000040000fa
:104dfc00431c04d0172303734ff0ff307047034b51
:104e0c0009221a704ff0ff30704700bfcd250020eb
:020000040000fa
:104e1c00431c04d0172303734ff0ff307047034b30
:104e2c0009221a704ff0ff30704700bfcd250020cb
:020000040000fa
:104e3c00431c04d0172303734ff0ff307047034b10
:104e4c0009221a704ff0ff30704700bfcd250020ab
:020000040000fa
:104e5c0000b583b000f130024ff03a0301a88df891
:104e6c000420adf80530fff71bff03b05df804fb21
:020000040000fa
:104e7c0010b50023934206d113f0030018bf012094
:0e4e8c0000eb930010bdc45ccc540133f2e780
:020000040000fa
:024e9a0070475f
:020000040000fa
:104e9c0038b50468631c07d0034600205d6800f039
:0c4eac008bfb84f30888284738bd00bf4a
:020000040000fa
:104eb80030b585b00125089c00940024cde9024551
:0c4ec8000194fcf705fe05b030bd00bff2
:020000040000fa
:104ed40030b585b00225089c00940124cde9024533
:0c4ee4000194fcf7f7fd05b030bd00bfe5
:020000040000fa
:104ef00010b584b00224009303941346cde9014415
:0c4f00000022fcf7e9fd04b010bd00bf6a
:020000040000fa
:104f0c0030b585b00325089c009402240394012439
:0c4f1c00cde90145fcf7dafd05b030bd21
:020000040000fa
:104f280008b5fff781f828b10078034b982202fbf7
:0c4f38000030683008bd00bf902300204e
:020000040000fa
:104f440008b5fff773f828b10378034a982101fbe9
:0c4f54000323d86808bd00bf9023002094
:020000040000fa
:104f6000054a936823f001039360d368db07fcd400
:0c4f700001231362704700bf0060004185
:020000040000fa
:104f7c00431c03d01723037301207047024b0922f3
:0c4f8c001a700120704700bfcd250020e6
:020000040000fa
:104f980038b9054b1b685869421c02d09b685b698d
:0c4fa80018474ff0ff307047042700202e
:020000040000fa
:104fb40040b9054b1b681a7822b19a68d26a0ab1c3
:0c4fc40018691047704700bf0427002048
:020000040000fa
:104fd00049b1002807db044a00f01f010123400902
:0c4fe0008b4042f82030704700e100e0f8
:020000040000fa
:104fec0008b500f019fb044b1868fdf7cbfabde8c7
:0c4ffc000840fcf7a5ba00bfa425002067
:020000040000fa
:1050080030b501390024a24206d0035d01340d5d9c
:0c501800ab42f8d0581b00e0002030bd77
:020000040000fa
:105024005ab110b40a44431e11f8014b03f8014f5e
:0c5034009142f9d15df8044b70477047c1
:020000040000fa
:105040002f6d6e742f6d656d312f6466755f303115
:085050002e62696e000000bf32
:020000040000fa
:1050580010b50c46fff76efe28b121462020bde8aa
:085068001040fff743bb10bd2f
:020000040000fa
:1050700010b50c46fff762fe28b12146d820bde8e6
:085080001040fff737bb10bd23
:020000040000fa
:1050880008b5fff757fe28b10021c720bde8084042
:08509800fff72cbb08bd00bfaf
:020000040000fa
:1050a000044a936823f001039360d368db07fcd4c0
:0850b000704700bf00600041e1
:020000040000fa
:1050b8000349044b00204af2335208809a80704713
:0850c800b22500200040004168
:020000040000fa
:1050d00028b9044b1b689a685869d369184700209f
:0850e000704700bf0427002007
:020000040000fa
:1050e80030b9044b1b6893f8200010b1586a704718
:0850f80000207047042700208e
:020000040000fa
:105100006e766d00736400006d6d63626c6b000001
:0851100072616d006d74640012
:020000040000fa
:1051180003783bb110b50446103000f089f800b9a7
:08512800207010bd0920704742
:020000040000fa
:1051300010b50c46fff7daf924b118b9d4f81831d4
:0851400003b1187010bd00bf9f
:020000040000fa
:1051480010b504300c46fff7b1fa24b118b9d4f8f9
:08515800183103b1187010bdfd
:020000040000fa
:1051600003783bb110b50446043000f06ff800b985
:08517000207010bd09207047fa
:020000040000fa
:105178002f6d6e742f6d656d310000002f6465769c
:085188002f6d74646131000019
:020000040000fa
:1051900003783bb1034600bf13f8012f002afbd16f
:0851a000181a70471846704709
:020000040000fa
:1051a80010b50023c25ccc5ca24202d10133002ab4
:0651b800f8d1101b10bd30
:020000040000fa
:0251be00704738
:020000040000fa
:1051c00018b9034b93f9000070470020704700bfe7
:0451d0009023002008
:020000040000fa
:1051d40038b50d461446fef729ff08b14560c46092
:0451e40038bd00bf13
:020000040000fa
:1051e800013004d0024a53680bb1013b5360704749
:0451f8003825002036
:020000040000fa
:1051fc00eff3108072b6bff35f8fb0fa80f0400906
:04520c00704700bf28
:020000040000fa
:1052100018b1bff35f8f62b6704772b6bff35f8f8e
:04522000704700bf14
:020000040000fa
:10522400034a13889bb223f030031843108070475d
:0452340000400041f5
:020000040000fa
:1052380010b582b001a90446fff718fa00b920603a
:0452480002b010bde3
:020000040000fa
:10524c0010b582b001a90446fff70efa00b9206030
:04525c0002b010bdcf
:020000040000fa
:105260002a3a3c3e7c223f7f000000002b2c3b3d35
:045270005b5d000082
:020000040000fa
:10527400012303fa00f04df6f203184214bf012093
:04528400002070474f
:020000040000fa
:1052880000510000045100000851000010510000b6
:0452980014510000ad
:020000040000fa
:10529c001d480000fd3c0000d93f00004d340000cb
:0452ac00c934000001
:020000040000fa
:1052b000ed5200007d4e00005d5600005d5600007e
:0452c000a544000001
:020000040000fa
:1052c40032b1c9b20244034603f8011b9342fbd135
:0452d400704700bf60
:020000040000fa
:1052d80010b50c46fef7b0fc0378e4b2a34218bf41
:0452e800002010bdd5
:020000040000fa
:1052ec000a440023914201d10020704701f8013b90
:0252fc00f8e7d1
:020000040000fa
:1053000008b5fef795fe003018bf012008bd00bfac
:020000040000fa
:10531000b54500008937000095390000c123000021
:020000040000fa
:105320000b46024a0146fff73fba00bf984900000a
:020000040000fa
:10533000024b40f204521a80704700bf0040004107
:020000040000fa
:1053400008b513460a461946fff76cfe012008bd52
:020000040000fa
:10535000024b588ac04300f00100704700400041f2
:020000040000fa
:10536000024b4af2115258619a8070470040004146
:020000040000fa
:10537000024b4af2125258619a8070470040004135
:020000040000fa
:10538000024b4af216529a80704700bf004000411b
:020000040000fa
:10539000024bd86ac0f38000704700bf0040004154
:020000040000fa
:1053a000024b188ac0f30020704700bf0040004144
:020000040000fa
:1053b000024b4af217529a80704700bf00400041ea
:020000040000fa
:1053c000024b4af232529a80704700bf00400041bf
:020000040000fa
:1053d000014b024a1a60704700340042020000018b
:020000040000fa
:1053e00001030507090e10121416181c1e0000bf39
:020000040000fa
:1053f00008b5024800f094f8002008bdbd4d00003b
:020000040000fa
:10540000431c03d003780bb1007b70470920704721
:020000040000fa
:10541000024b17221a704ff0ff307047cd25002045
:020000040000fa
:10542000024b17221a704ff0ff307047cd25002035
:020000040000fa
:10543000024b17221a704ff0ff307047cd25002025
:020000040000fa
:10544000024b17221a704ff0ff307047cd25002015
:020000040000fa
:10545000024b17221a704ff0ff307047cd25002005
:020000040000fa
:10546000024b17221a704ff0ff307047cd250020f5
:020000040000fa
:10547000024b17221a704ff0ff307047cd250020e5
:020000040000fa
