:020000040000fa
:10000000f0ff0320fd0f0200cd8f0200d38f02000e
:10001000df8f0200e58f0200eb8f0200000000007e
:100020000000000000000000000000004175020018
:10003000d98f02000000000001ef0100f937020033
:10004000afa70000afa70000afa70000afa7000058
:10005000afa70000afa70000afa70000afa7000048
:10006000afa70000afa70000afa70000afa7000038
:10007000d5500200afa70000095102003d51020017
:10008000afa70000afa70000afa70000afa7000018
:10009000afa70000afa70000afa70000afa7000008
:1000a000afa70000afa70000e14202001d4302001d
:1000b000afa70000afa70000afa70000afa70000e8
:1000c000afa70000afa70000afa70000afa70000d8
:1000d000afa70000afa70000afa70000afa70000c8
:1000e000afa70000afa70000000000000000000064
:1000f00000000000afa70000afa70000afa70000fe
:10010000afa70000afa70000d95f0100d95f0100d1
:10011000d95f0100d95f0100afa70000afa70000c1
:10012000afa70000afa7000069bc000069bc0000d9
:1001300069bc000069bc0000b1a70000b1a70000c5
:10014000b1a70000b1a70000a5be0000a5be000039
:10015000a5be0000a5be0000afa70000afa700002d
:10016000afa70000afa70000afa70000afa7000037
:10017000afa70000afa700000000000000000000d3
:10018000afa70000afa70000afa70000afa7000017
:1001900000000000afa70000afa70000afa700005d
:1001a000afa70000afa70000afa70000afa70000f7
:1001b000afa70000afa70000afa70000afa70000e7
:1001c000afa70000afa70000afa70000afa70000d7
:1001d000afa70000afa70000afa70000afa70000c7
:1001e000afa70000afa70000afa70000afa70000b7
:1001f000f518020041190200afa70000afa70000e8
:10020000afa70000afa70000afa700009543020012
:10021000afa70000afa70000afa70000afa7000086
:10022000afa70000afa70000afa70000afa7000076
:10023000afa70000afa70000afa70000afa7000066
:10024000afa70000afa70000afa70000afa7000056
:10025000afa70000afa70000afa70000afa7000046
:04026000afa7000044
:020000040000fa
:10026400f8b500bff8bc08bc9e4670471d350200b7
:10027400f8b500bff8bc08bc9e467047f9340200cc
:020000040000fa
:080284009c9000000100000045
:020000040000fa
:10028c002c8301200400000001000000000000008d
:10029c00748101201c00000000000000b07d0120d2
:1002ac00a8000000000000002482012010000000c3
:1002bc00000000006c870120040000000100000019
:1002cc00248201209482012006000000000000001e
:1002dc00048301200300000000000000688201205c
:1002ec000c0000000000000007830120010000004a
:1002fc0000000000148401206800000001000000d0
:10030c003c000000000000103b0000000000000852
:10031c003a00000000000004390000000000000258
:10032c0038000000000000013700000000008000d1
:10033c0036000000000040003500000000002000e6
:10034c003400000000001000330000000000080022
:10035c003200000000000400310000000000020028
:10036c003000000000000100f07c0120c000000003
:10037c00000000009a820120020000000000000032
:10038c007872012008000000000000008880012025
:10039c0084000000000000002480012030000000d8
:1003ac0000000000f87e01200800000000000000a2
:1003bc00748201200800000000000000ec510120b4
:1003cc00040000000000000008830120020000006f
:1003dc000000000016830120010000000000000056
:1003ec00348101202000000000000000f076012084
:1003fc0000020000000000006082012008000000e4
:10040c00000000008072012050020000000000007b
:10041c00f06901208004000000000000007f012032
:10042c007000000000000000178301200100000094
:10043c0000000000c0850120140000000100000035
:10044c00507d0200547d0200587d0200607d020048
:10045c00647d02000c8101202800000000000000d7
:10046c00908101201c00000000000000f0610120c0
:10047c000008000000000000f078012000020000dd
:10048c000000000078850120180000000100000029
:10049c000c81012090810120448201200000000089
:1004ac00f078012000000000000000200200000095
:1004bc00000000007c820120080000000000000009
:1004cc00ac81012014000000000000008482012097
:1004dc000800000000000000d07401202002000081
:1004ec0000000000548101202000000000000000ea
:1004fc00548001200400000000000000188301203b
:10050c0001000000000000005880012030000000b5
:10051c0000000000587e0120a00000000000000038
:10052c00768501200200000001000000010000009f
:10053c00f051012000100000000000003482012066
:10054c001c00000000000000040000203800000027
:10055c000000000070870120040000000100000072
:10056c00aaaaaaaaecd1002000800000000000007a
:10057c005c82012004000000000000009c8201202d
:10058c000800000000000000707f012064000000e3
:10059c0000000000c08101202800000000000000c5
:1005ac00a48201200800000000000000e881012066
:1005bc002800000000000000ac82012004000000b4
:1005cc000000000010820120140000000000000058
:1005dc00b082012028000000000000007487012078
:1005ec00040000000100000004000000d88201207b
:1005fc00040000000000000019830120010000002d
:10060c00000000003c000020100100000000000071
:10061c001a8301200200000000000000dc8201208f
:10062c0004000000000000001c83012001000000f9
:10063c0000000000a785012001000000010000005f
:10064c00010000001d8301200200000000000000da
:10065c00bf85012001000000010000000100000026
:10066c004c0100200300000000000000f07a012083
:10067c0000020000000000000488012003000000bc
:10068c0001000000020202001f8301200300000091
:10069c000000000050010020680000000000000075
:1006ac000a830120020000000000000022830120c8
:1006bc000100000000000000b801002024380000f8
:1006cc0000000000e0820120040000000000000097
:1006dc00dc3900203102000000000000e48201201f
:1006ec000800000000000000103c00205820000012
:1006fc000000000023830120020000000000000025
:10070c003083012078000000010000000000000090
:10071c0000000000000030751027000000000000f1
:10072c0000000000000000000000000000000000bd
:10073c0000000000000000000000000000000000ad
:10074c00000000000000000000000000010000009c
:10075c00000000000000000000000000000000008d
:10076c00000000000000000000000000000000007d
:10077c00000000000000000000000000000000006d
:10078c000000000025830120010000000000000093
:10079c00685c0020f806000000000000788701204b
:1007ac0004000000010000006d4944003486012063
:1007bc0006000000010000006669726d5600000022
:1007cc00008801200300000001000000534e0000cf
:1007dc00bc86012005000000010000006353746119
:1007ec0000000000c486012005000000010000008c
:1007fc00626c456e00000000cc86012005000000f4
:10080c000100000061566f6c000000003c86012066
:10081c000600000001000000626174744c000000ce
:10082c000c86012008000000010000006261747455
:10083c004d696e00d4860120050000000100000007
:10084c006143456e00000000dc86012005000000bd
:10085c00010000006368537400000000e48601206e
:10086c000500000001000000734c766c00000000d5
:10087c001c86012007000000010000006150775425
:10088c00696d000044860120060000000100000094
:10089c00615077456e0000007c8701200800000045
:1008ac0001000000644d54006d456e00248601204b
:1008bc0007000000010000006d6963436f6e0000cb
:1008cc00ec860120050000000100000065715078e5
:1008dc0000000000f486012005000000010000006b
:1008ec006571496400000000fc86012005000000d1
:1008fc0001000000657150760000000004870120a3
:10090c0005000000010000006571506e0000000041
:10091c000c87012005000000010000006571506487
:10092c00000000004c8601200600000001000000c1
:10093c0064667546530000005486012006000000d2
:10094c000100000064667546430000005c860120cf
:10095c00060000000100000064667553530000009f
:10096c00848701200400000001000000704944004d
:10097c0014870120050000000100000070436e7414
:10098c00000000001c870120050000000100000091
:10099c00704e6d7300000000888701200400000079
:1009ac000100000070456e00648601200600000006
:1009bc0001000000704e616d65000000248701206d
:1009cc00050000000100000070537461000000007d
:1009dc008c8701200400000001000000644f6e00b1
:1009ec002c8601200700000001000000626c4f6e95
:1009fc00505700002c87012005000000010000006a
:100a0c006442726900000000348701200500000078
:100a1c0001000000634d6978000000003c87012054
:100a2c0005000000010000006d4d69780000000019
:100a3c004487012005000000010000006d566f6c1a
:100a4c000000000090870120180000000100000049
:100a5c006d5374006d4e47006d4e52006d564e0036
:100a6c006d4c4200616e63004c8701200500000054
:100a7c000100000065715065000000006c860120cb
:100a8c000600000001000000615375727200000046
:100a9c005487012005000000010000006c456666cb
:100aac0000000000a88701201000000001000000d9
:100abc006c456e006c434d006c5343006c47430017
:100acc007486012006000000010000006c52617465
:100adc00650000005c87012005000000010000009b
:100aec006c42726900000000b8870120040000000d
:100afc00010000006c414f007c86012006000000c4
:100b0c0001000000657150494400000084860120fa
:100b1c00060000000100000050726f5264000000db
:100b2c008c860120060000000100000050726f4608
:100b3c006300000094860120060000000100000004
:100b4c0050726f43720000009c860120060000006a
:100b5c000100000050726f446c000000a48601205c
:100b6c00060000000100000050726f44700000008d
:100b7c00ac8601200600000001000000646675438d
:100b8c006d000000bc8701200c000000010000007b
:100b9c006f6666006c6f77006d656400648701207a
:100bac000500000001000000686967680000000093
:100bbc00fc87012003000000010000006f700000a2
:100bcc00f8870120020000000100000077000000ff
:100bdc00f4870120020000000100000072000000f8
:100bec00f0870120020000000100000069000000f5
:100bfc00ec870120020000000100000063000000ef
:100c0c00c88701200c00000001000000636d640027
:100c1c00706964007374730014860120080000006e
:100c2c00010000007375636365737300b486012063
:100c3c0006000000010000006572726f7200000077
:100c4c00606300206708000000000000c86b0020f3
:100c5c00091e000000000000268301200100000096
:100c6c0000000000d48701200400000001000000f7
:100c7c0000000020ec8201200400000000000000b5
:100c8c002783012001000000000000000c830120dc
:100c9c000400000000000000e685012002000000b6
:100cac00010000000100000010830120040000007e
:100cbc0000000000fc8501200d0000000100000078
:100ccc006466755f66696c652e62696e0000000073
:100cdc009085012017000000010000002f6d6e743c
:100cec002f6d656d312f6466755f66696c652e625c
:100cfc00696e0000d4890020100000000000000084
:100d0c00288301200100000000000000d485012090
:100d1c0012000000010000007b22737473223a223f
:100d2c0073756363657373227d000000a8850120d1
:100d3c0017000000010000007b22737473223a221a
:100d4c006572726f72222c226d7367223a22000038
:100d5c00e88701200300000001000000227d000054
:100d6c005c8501201a000000010000007b227374d6
:100d7c0073223a2273756363657373222c22646148
:100d8c007461223a7b000000e4870120030000001c
:100d9c00010000007d7d0000e885012012000000ac
:100dac00010000007b226f70223a2269222c2270f3
:100dbc006964223a22000000e08701200300000051
:100dcc00010000007d7d0000148301200200000062
:100ddc0000000000e4890020014800000000000031
:100dec00e8d100200100000000000000f08201208a
:100dfc000400000000000000d47f0120500000001f
:100e0c0000000000a88301206c000000010000001d
:100e1c00b4830120b0830120b483012000000000c2
:100e2c0025000000786e0120000400000000000086
:100e3c0000000000000000000000000000000000a6
:100e4c0000000000000000000000000021900200e3
:100e5c000000000000000000000000000000000086
:100e6c0035f8010000000000000000000000000048
:100e7c00000000000000000000000000706e012067
:100e8c0008040000000000003c8501202000000048
:100e9c000100000001000000030000000000000041
:100eac000000000000000000000000000000000036
:100ebc008c8201208c8201200800000000000000c0
:100ecc00f482012008000000000000007c84012056
:100edc0060000000010000000100000003000000a1
:100eec0000000000000000000000000000000000f6
:100efc00000000002d0002000000000000000000b7
:100f0c0000000000f78f02004bc50000000000003d
:100f1c0000000000000000000000000000000000c5
:100f2c0000000000000000000000000000000000b5
:100f3c000000000000000000fc8201200400000002
:100f4c0000000000dc8401206000000001000000b3
:100f5c000100000003000000000000000000000081
:100f6c000000000000000000000000002d00020046
:100f7c00000000000000000000000000f78f0200dd
:100f8c004bc5000000000000000000000000000045
:100f9c000000000000000000000000000000000045
:100fac000000000000000000000000000000000035
:100fbc00d88701200400000001000000010000009f
:100fcc00008301200400000000000000508201207a
:100fdc000c00000000000000dc8701200400000071
:100fec0001000000000000000000000000000000f4
:020000040000fa
:100ffc00b0b596b000af03460a46fb711346bb7101
:10100c00002387f84e30002387f84d30002387f8f3
:10101c004c30fb79052b03d94ff0ff3300f04dbd5d
:10102c00bb79202b03d96ff0010300f046bd27f0ec
:10103c00cdfb00233b6500f01cbd00237b6500232a
:10104c0087f84f303b6d1b01bb4a1344bb49184614
:10105c0027f082fc0346002b0cd107f10c02fb7924
:10106c001146184626f0e6fc7865012387f84f30c8
:10107c0000f0c6bc3b6d1b01af4a1344b049184687
:10108c0027f06afc0346002b0cd107f10c02fb790c
:10109c001146184626f0e0fc7865012387f84f309e
:1010ac0000f0aebc3b6d1b01a34a1344a549184686
:1010bc0027f052fc0346002b0cd107f10c02fb79f4
:1010cc001146184627f0bcf87865012387f84f3095
:1010dc0000f096bc3b6d1b01974a13449a49184685
:1010ec0027f03afc0346002b0cd107f10c02fb79dc
:1010fc001146184622f05afc7865012387f84f30c8
:10110c0000f07ebc3b6d1b018b4a13448f49184683
:10111c0027f022fc0346002b0cd107f10c02fb79c3
:10112c001146184622f082fc7865012387f84f306f
:10113c0000f066bc3b6d1b017f4a13448449184682
:10114c0027f00afc0346002b0cd107f10c02fb79ab
:10115c001146184622f0aafc7865012387f84f3017
:10116c0000f04ebc3b6d1b01734a13447949184681
:10117c0027f0f2fb0346002b0cd107f10c02fb7994
:10118c001146184622f0d2fc7865012387f84f30bf
:10119c0000f036bc3b6d1b01674a13446e49184680
:1011ac0027f0dafb0346002b0cd107f10c02fb797c
:1011bc001146184622f0fafc7865012387f84f3067
:1011cc0000f01ebc3b6d1b015b4a1344634918467f
:1011dc0027f0c2fb0346002b0cd107f10c02fb7964
:1011ec001146184622f022fd7865012387f84f300e
:1011fc0000f006bc3b6d1b014f4a1344584918467e
:10120c0027f0aafb0346002b0bd107f10c02fb794c
:10121c001146184622f02afd7865012387f84f30d5
:10122c00eee33b6d1b01444a13444e49184627f02c
:10123c0093fb0346002b0bd107f10c02fb791146f3
:10124c00184622f033fd7865012387f84f30d7e339
:10125c003b6d1b01384a13444349184627f07cfb6d
:10126c000346002b0bd107f10c02fb7911461846f3
:10127c0022f03cfd7865012387f84f30c0e33b6dcd
:10128c001b012d4a13443949184627f065fb0346c8
:10129c00002b0bd1fb7907f10c021146184621f0fb
:1012ac000bfc7865012387f84f30a9e33b6d1b01dc
:1012bc00214a13442e49184627f04efb0346002bb7
:1012cc000bd107f10c02fb791146184622f06efd8a
:1012dc007865012387f84f3092e33b6d1b01164a6a
:1012ec0013442449184627f037fb0346002b0bd137
:1012fc0007f10c02fb791146184622f097fd786530
:10130c00012387f84f307be33b6d1b010a4a1344e2
:10131c001949184627f020fb0346002b2ed107f164
:10132c000c02fb791146184622f0a0fd78650123ca
:10133c0087f84f3064e300bfcc6b00207887012026
:10134c003486012000880120bc860120c48601203f
:10135c00cc8601203c8601200c860120d4860120fd
:10136c00dc860120e48601201c86012044860120b5
:10137c007c87012080870120248601203b6d1b0186
:10138c00ba4a1344ba49184627f0e6fa0346002b2a
:10139c000fd107f10c02fb791146184608f018f929
:1013ac00786520233b7300237b73012387f84f3030
:1013bc0026e33b6d1b01ad4a1344ae49184627f09a
:1013cc00cbfa0346002b0bd107f10c02fb7911462b
:1013dc00184623f013fa7865012387f84f300fe392
:1013ec003b6d1b01a14a1344a349184627f0b4fadc
:1013fc000346002b0bd107f10c02fb791146184662
:10140c0022f094fd7865012387f84f30f8e23b6dac
:10141c001b01964a13449949184627f09dfa034636
:10142c00002b0bd107f10c02fb791146184622f068
:10143c009dfd7865012387f84f30e1e23b6d1b0180
:10144c008a4a13448e49184627f086fa0346002b25
:10145c000bd107f10c02fb791146184622f0a6fdc0
:10146c007865012387f84f30cae23b6d1b017f4a38
:10147c0013448449184627f06ffa0346002b0bd10e
:10148c0007f10c02fb791146184622f0affd786586
:10149c00012387f84f30b3e23b6d1b01734a1344b1
:1014ac007949184627f058fa0346002b0fd107f15b
:1014bc000c02fb791146184625f0a8fb7865202311
:1014cc003b7300237b73012387f84f3098e23b6d0d
:1014dc001b01664a13446d49184627f03dfa034632
:1014ec00002b0bd107f10c02fb791146184620f0aa
:1014fc0077fb7865012387f84f3081e23b6d1b0148
:10150c005a4a13446249184627f026fa0346002b20
:10151c000bd107f10c02fb791146184621f0f0fab9
:10152c007865012387f84f306ae23b6d1b014f4a07
:10153c0013445849184627f00ffa0346002b0bd1d9
:10154c0007f10c02fb791146184620f06ffb786509
:10155c00012387f84f3053e23b6d1b01434a134480
:10156c004d49184627f0f8f90346002b0bd107f12b
:10157c000c02fb791146184620f07efb786501239e
:10158c0087f84f303ce23b6d1b01384a134443490a
:10159c00184627f0e1f90346002b0bd107f10c029a
:1015ac00fb791146184620f08dfb7865012387f8ee
:1015bc004f3025e23b6d1b012c4a13443849184629
:1015cc0027f0caf90346002b0bd107f10c02fb796b
:1015dc001146184620f09cfb7865012387f84f30a4
:1015ec000ee23b6d1b01214a13442e49184627f08d
:1015fc00b3f90346002b0bd107f10c02fb79114612
:10160c00184620f0abfb7865012387f84f30f7e1e3
:10161c003b6d1b01154a13442349184627f09cf9ce
:10162c000346002b0bd107f10c02fb79114618462f
:10163c0020f0bafb7865012387f84f30e0e13b6d71
:10164c001b010a4a13441949184627f085f9034629
:10165c00002b2dd107f10c02fb791146184620f016
:10166c00c9fb7865012387f84f30c9e1cc6b0020aa
:10167c00ec8601204c860120548601205c860120da
:10168c0084870120148701201c8701208887012072
:10169c0064860120248701208c8701202c86012060
:1016ac002c870120348701203c87012044870120ae
:1016bc003b6d1b01b64a1344b649184627f04cf94a
:1016cc000346002b0bd107f10c02fb79114618468f
:1016dc001bf034f87865012387f84f3090e13b6daf
:1016ec001b01ab4a1344ac49184627f035f90346a5
:1016fc00002b0bd107f10c02fb79114618461bf09d
:10170c0061f87865012387f84f3079e13b6d1b0157
:10171c009f4a1344a149184627f01ef90346002b93
:10172c000bd107f10c02fb791146184620f088fb0f
:10173c007865012387f84f3062e13b6d1b01944ab9
:10174c0013449749184627f007f90346002b0bd191
:10175c0007f10c02fb791146184620f097fb7865cf
:10176c00012387f84f304be13b6d1b01884a134432
:10177c008c49184627f0f0f80346002b0bd107f1e3
:10178c000c02fb791146184620f0a6fb7865012364
:10179c0087f84f3034e13b6d1b017d4a134482497d
:1017ac00184627f0d9f80346002b0bd107f10c0291
:1017bc00fb791146184620f0b5fb7865012387f8b4
:1017cc004f301de13b6d1b01714a1344774918469c
:1017dc0027f0c2f80346002b0bd107f10c02fb7962
:1017ec001146184620f01afd7865012387f84f3012
:1017fc0006e13b6d1b01664a13446d49184627f000
:10180c00abf80346002b0bd107f10c02fb79114608
:10181c00184620f0adfb7865012387f84f30efe0d8
:10182c003b6d1b015a4a13446249184627f094f841
:10183c000346002b0bd107f10c02fb79114618461d
:10184c0020f0bcfb7865012387f84f30d8e03b6d66
:10185c001b014f4a13445849184627f07df803469c
:10186c00002b0bd107f10c02fb791146184620f026
:10187c00cbfb7865012387f84f30c1e03b6d1b0132
:10188c00434a13444d49184627f066f80346002b8b
:10189c000bd107f10c02fb791146184620f0dafb4c
:1018ac007865012387f84f30aae03b6d1b01384a5d
:1018bc0013444349184627f04ff80346002b0bd12d
:1018cc0007f10c02fb791146184620f0e9fb78650c
:1018dc00012387f84f3093e03b6d1b012c4a1344d6
:1018ec003849184627f038f80346002b0bd107f17e
:1018fc000c02fb791146184620f0f8fb78650123a1
:10190c0087f84f307ce03b6d1b01214a13442e4974
:10191c00184627f021f80346002b0bd107f10c02d7
:10192c00fb791146184620f007fc7865012387f8ef
:10193c004f3065e03b6d1b01154a13442349184693
:10194c0027f00af80346002b0bd107f10c02fb79a8
:10195c001146184620f016fc7865012387f84f30a5
:10196c004ee03b6d1b010a4a13441949184626f0f8
:10197c00f3ff0346002b2dd107f10c02fb79114626
:10198c00184620f025fc7865012387f84f3037e0a6
:10199c00cc6b002090870120948701209887012030
:1019ac009c870120a0870120a48701204c8701205f
:1019bc006c86012054870120a8870120ac87012068
:1019cc00b0870120b4870120748601205c87012038
:1019dc00b88701203b6d1b013a4a13443a4918461b
:1019ec0026f0baff0346002b0ad107f10c02fb7953
:1019fc001146184620f038fc7865012387f84f30e3
:101a0c0097f84f30002b31d07b6d002b29d13b6ddb
:101a1c001b012c4a9c183b6d1b012a4a1344184687
:101a2c0026f01cff0346ddb207f10c03184626f026
:101a3c0015ff0346dbb207f10c02294620461af0cb
:101a4c0057fc78657b6d002b05db97f84e30013326
:101a5c0087f84e300ae097f84c30013387f84c3059
:101a6c0004e097f84d30013387f84d303b6d01336e
:101a7c003b65bb793a6d9a42fff6dfaa97f84e3078
:101a8c00002b12d097f84d30002b03d0002022f001
:101a9c00f1fe11e097f84c30002b03d0012022f01e
:101aac00e9fe09e024f086fb06e097f84d30002ba8
:101abc0002d0022022f0defe002318465837bd4625
:0c1acc00b0bd00bfcc6b00207c86012068
:020000040000fa
:101ad80080b5a0b000aff860b9607a603b6007f1ec
:101ae8000c03184619f0e0fff864fb6c002b02dacf
:101af8000b2300f098bca74afb6c52f82330002b4c
:101b080005d0a44afb6c52f8233000221a70a24a6e
:101b1800fb6c12f8133087f84b309f4afb6c5b0064
:101b280013445b7887f84a3097f84b30184626f00c
:101b3800dbf8034687f8493097f8493003f001038a
:101b4800002b02d0032300f06ebc97f8493003f055
:101b58000403002b02d00a2300f065bcbb68002bed
:101b680001d18e4bbb60bb685b68fb61fb69002bd6
:101b780007d107f11c0297f84b30032118461cf0d7
:101b880009f9fb69002b09d0fb69b3f5004f05d8ab
:101b9800fb695a1efb691340002b01d00123fb612e
:101ba8004ff40073a7f84630bb681b7803f00f03a7
:101bb80087f84530bb685b78002b06d0bb685b783c
:101bc800022b02d8bb685b7800e001233b64bb684a
:101bd8009b68002b14d0bb689b68b3f5004f0fd8e7
:101be800bb689b68b7f84620520992b2b3fbf2f182
:101bf80002fb01f29b1a002b02d1bb689b6801e033
:101c08004ff40073fb63bb68db68b3f1807f0ad8cd
:101c1800bb68da68bb68db68013b1340002b02d164
:101c2800bb68db6800e000237b65b7f846307a6d57
:101c3800b2fbf3f37b65b7f846303a68b2fbf3f3cf
:101c4800bb63bb6b002b01d11123ece37b687b6387
:101c58007b6b002b01d11123e5e30023bb61bb693a
:101c6800fb6697f84a30002b3cd097f84b000123cd
:101c78000022796b24f077fb0346002b01d0012367
:101c8800d1e37b6b03f5ff73184624f0fdf8034698
:101c98001a464af655239a4201d00e23c3e397f811
:101ca8004a30013b1b0103f5df731a467b6b134473
:101cb8003b6397f84a30042b04d83b6b04331b78fa
:101cc800002b01d10e23aee33b6b0833184620f0fe
:101cd800cbfff8663b6b0c33184620f0c5ff034674
:101ce800bb611be007f1180297f84b300121184639
:101cf8001cf050f80346002b01d0012393e397f81a
:101d0800453003f00803002b08d1bb693f2b05d9e8
:101d18003f23fb66ba69fb6ed31abb61bb697f2b95
:101d280001d80e237fe37b6d802b01d980237b654f
:101d380097f8453003f00203002b09d097f8453097
:101d480003f00103002b03d1032387f87f300ae057
:101d580097f8453003f00103002b01d1132362e308
:101d6800022387f87f301ff029f80246bb69134425
:101d7800fb627b6dbb6797f87f30032b44d1bb6f49
:101d8800002b21d1bb695b0c3b6700233b6501231a
:101d9800bb670be0ec51012000000020e48c02003e
:101da8003b6d01333b65bb6f5b00bb67974a3b6d7f
:101db80032f81330002b07d0944a3b6d32f81330b9
:101dc8001a463b6f9342ebd2ba69bb6fb2fbf3f38f
:101dd800bb62bb6a02339a00b7f8463013445a1ef6
:101de800b7f84630b2fbf3f3fb6520233b660023cc
:101df800bb65bb6a4ff6f572934203d9bb6a844a46
:101e080093424dd90e230ee3bb6f002b1bd1bb6948
:101e18001b0b3b6700233b650123bb6705e03b6d5c
:101e280001333b65bb6f5b00bb677a4a3b6d32f899
:101e38001330002b07d0774a3b6d32f813301a461f
:101e48003b6f9342ebd2ba69bb6fb2fbf3f3bb6251
:101e5800bb6a40f6f572934204d9bb6a02335b0051
:101e68003b670ae0012387f87f30ba6a13465b00b4
:101e7800134401335b0803333b67b7f846203b6fd5
:101e880013445a1eb7f84630b2fbf3f3fb6501233f
:101e98003b66fb6b5a01b7f84630b2fbf3f3bb6500
:101ea800fa6e3b6e1344bb66fb6d3a6c02fb03f2a1
:101eb800bb6e1344ba6d13447b62fa697b6a1344a0
:101ec8005a1efb695b421a407b6ad31a3b6797f834
:101ed8007f30032b08d13a6e3b6f13443b66ba6ed2
:101ee8003b6f1344bb6619e03b6f3a6cb3fbf2f2ed
:101ef800396c01fb02f29b1a002b08d03b6f013ba7
:101f08003b673b6e01333b66bb6e0133bb663a6f82
:101f18003b6cb2fbf3f3fa6d1344fb65bb6f1a011c
:101f28007b6a1a44fb6ed21abb699a4201d90e2306
:101f380079e2ba693b6ed21afb6d396c01fb03f387
:101f4800d21abb6dd21abb6fb2fbf3f3bb6297f820
:101f58007f30032b0fd1bb6a4ff6f57293420ad834
:101f68007b6d002b05d1bb6f5b087b657b6d002b00
:101f780045d10e2357e297f87f30022b34d1bb6a44
:101f88004ff6f57293421fd97b6d002b07d1bb6fbb
:101f98005b00402b03d8bb6f5b007b6534e097f890
:101fa800453003f00203002b03d0032387f87f306a
:101fb8002ae07b6d002b05d1bb6f5b007b657b6dd9
:101fc800802b1ed90e232ee2bb6a40f6f57293428f
:101fd8000ad87b6d002b05d1bb6f5b007b657b6de1
:101fe800802b10d90e231ee297f87f30012b13d1d6
:101ff800bb6a40f6f57293420ed90e2313e200bf76
:10200800b7e600bfb5e600bfb3e600bff48c020038
:10201800f5ffff0f048d020000bfb7f846301a46df
:102028000021786b26f0f2fd0b22bd49786b26f073
:1020380025f97b6b0b33b7f846201146184622f07a
:102048003dff7b6b0d33ba6fd2b21a707b6b0e33c8
:102058003a6e92b21146184622f030ff7b6b10336d
:102068003a6cd2b21a707b6b03f1110297f87f3089
:10207800032b02d0fb6b9bb200e0002319461046ed
:1020880022f01cffbb69b3f5803f08d27b6b13338a
:10209800ba6992b21146184622f010ff06e07b6b2f
:1020a8002033ba69114618461ef0d4f97b6b1533f4
:1020b800f8221a707b6b18333f21184622f0fefe77
:1020c8007b6b1a33ff21184622f0f8fe7b6b1c331a
:1020d800f96e18461ef0bef997f87f30032b2dd104
:1020e8007b6b4333f96a18461ef0b4f97b6b2433d3
:1020f800f96d18461ef0aef97b6b2c330221184699
:102108001ef0a8f97b6b30330121184622f0d6fe69
:102118007b6b32330621184622f0d0fe7b6b4033ae
:1021280080221a707b6b423329221a707b6b4733eb
:1021380013227c49184626f0a1f81ce07b6b273354
:10214800f96a18461ef086f97b6b1633fa6d92b25f
:102158001146184622f0b2fe7b6b243380221a7097
:102168007b6b263329221a707b6b2b3313226e4923
:10217800184626f083f87b6b03f5ff734af6552162
:10218800184622f09bfe97f84b000123fa6e796bf4
:102198001df00cf90346002b01d0012343e197f809
:1021a8007f30032b41d1fb6e9a1d97f84b0001231a
:1021b800796b1df0fbf8b7f846301a460021786baa
:1021c80026f024fd5949786b1ef044f97b6b03f522
:1021d800f273574918461ef03df97b6b03f5f4720c
:1021e800bb6a013b194610461ef034f97b6b03f5b8
:1021f800f673022118461ef02df97b6b03f5ff7369
:102208004af65521184622f059fefb6eda1d97f85a
:102218004b000123796b1df0c9f8fb6e5a1c97f827
:102228004b000123796b1df0c1f8b7f84630ba6b43
:1022380002fb03f31a460021786b26f0e7fcbb6e1d
:102248007b6600233b654ce097f87f30032b13d166
:102258006ff00701786b1ef0fdf87b6b04334ff0cd
:10226800ff3118461ef0f6f87b6b08336ff07041ab
:1022780018461ef0eff80be097f87f30012b01d1dc
:102288002c4b01e06ff007031946786b1ef0e2f85b
:10229800fb6d7b677a6fbb6b934228bf13463b6726
:1022a80097f84b003b6f7a6e796b1df07ff8034609
:1022b800002b01d00123b6e0b7f846301a460021ba
:1022c800786b26f0a3fc7a6e3b6f13447b667a6fbb
:1022d8003b6fd31a7b677b6f002bdbd13b6d0133e0
:1022e8003b653a6d3b6c9a42aed397f87f30032b2f
:1022f80001d1bb6f00e0bb6d7b677a6fbb6b93420c
:1023080028bf13463b6797f84b003b6f7a6e796b93
:102318001df04cf80346002b0ed0012383e000bfcc
:10232800980b0200a40b0200b80b02005252614144
:1023380072724161f8ffff007a6e3b6f13447b664f
:102348007a6f3b6fd31a7b677b6f002bd5d197f8d9
:102358007f30032b03d10c2387f87e3012e0bb6952
:10236800b3f5803f03d3062387f87e300ae097f859
:102378007f30022b03d1042387f87e3002e001234b
:1023880087f87e3097f84a30002b22d097f84b0018
:1023980001230022796b23f0e6ff0346002b01d0ce
:1023a800012340e097f84a30013b1b0103f5e17334
:1023b8007a6b134497f87e201a7097f84b00012324
:1023c8000022796b1cf0f2ff0346002b1ed001237c
:1023d80029e097f8453003f00803002b16d1bb69b4
:1023e8003b6100237b6197f87e2007f1100197f885
:1023f8004b007b6b08f068fd034687f8233097f89d
:102408002330002b02d097f823300ce097f84b309c
:102418000022002118461bf0bdfc0346002b01d00a
:10242800012300e0002318468037bd4680bd00bf69
:020000040000fa
:1024380080b586b000af03460a46fb711346bb71f0
:1024480000237b610023bb7300237b73fb79052b7f
:1024580003d94ff0ff3300f033bcbb79202b03d9ed
:102468006ff0010300f02cbc00233b61fde3002367
:102478007b610023fb733b691b01b24a1344b249d9
:10248800184626f06bfa0346002b0cd13b699b01da
:10249800ae4a1a44fb791146184621f0a9fa786128
:1024a8000123fb73d1e33b691b01a64a1344a849e6
:1024b800184626f053fa0346002b0cd13b699b01c2
:1024c800a24a1a44fb791146184621f0d1fa7861dc
:1024d8000123fb73b9e33b691b019a4a13449d49e5
:1024e800184626f03bfa0346002b0cd13b699b01aa
:1024f800964a1a44fb791146184621f0f9fa786190
:102508000123fb73a1e33b691b018e4a13449249e3
:10251800184626f023fa0346002b0cd13b699b0191
:102528008a4a1a44fb791146184621f021fb786142
:102538000123fb7389e33b691b01824a13448749e2
:10254800184626f00bfa0346002b0cd13b699b0179
:102558007e4a1a44fb791146184621f049fb7861f6
:102568000123fb7371e33b691b01764a13447c49e1
:10257800184626f0f3f90346002b0cd13b699b0162
:10258800724a1a44fb79114618461ef099fb786185
:102598000123fb7359e33b691b016a4a13447149e0
:1025a800184626f0dbf90346002b0bd1f8793b6976
:1025b8009b01664a1344194621f0bafb786101234e
:1025c800fb7342e33b691b015e4a134466491846a4
:1025d80026f0c4f90346002b0cd13b699b015b4aea
:1025e8001a44fb791146184621f0c2fb7861012391
:1025f800fb732ae33b691b01524a13445b491846a3
:1026080026f0acf90346002b0cd13b699b014f4add
:102618001a44fb791146184621f0eafb7861012338
:10262800fb7312e33b691b01464a134450491846a1
:1026380026f094f90346002b0cd13b699b01434ad1
:102648001a44fb791146184621f0d2fb7861012320
:10265800fb73fae23b691b013a4a134445491846a1
:1026680026f07cf90346002b0cd13b699b01374ac5
:102678001a44fb791146184625f0aefe786101230d
:10268800fb73e2e23b691b012e4a13443a491846a0
:1026980026f064f90346002b0cd13b699b012b4ab9
:1026a8001a44fb791146184621f002fc786101238f
:1026b800fb73cae23b691b01224a13442f4918469f
:1026c80026f04cf90346002b0cd13b699b011f4aad
:1026d8001a44fb791146184621f00afc7861012357
:1026e800fb73b2e23b691b01164a1344244918469e
:1026f80026f034f90346002b0cd13b699b01134aa1
:102708001a44fb79114618461bf018fd786101231d
:10271800fb739ae23b691b010a4a1344194918469c
:1027280026f01cf90346002b2ed13b699b01074a72
:102738001a44fb791146184612f0dcf87861012337
:10274800fb7382e2cc6b0020c4860120cc6d002094
:10275800cc8601203c8601200c860120d4860120ed
:102768001c860120448601207c8701208087012067
:1027780024860120ec8601204c8601205486012005
:1027880084870120888701203b691b01b24a1344d2
:10279800b249184626f0e2f80346002b0cd13b69f3
:1027a8009b01af4a1a44fb79114618461cf00afdf2
:1027b80078610123fb7348e23b691b01a64a134475
:1027c800a849184626f0caf80346002b0cd13b69e5
:1027d8009b01a34a1a44fb79114618461ef022fdb4
:1027e80078610123fb7330e23b691b019a4a134469
:1027f8009d49184626f0b2f80346002b0cd13b69d8
:102808009b01974a1a44fb79114618461ef032fd7f
:1028180078610123fb7318e23b691b018e4a13445c
:102828009249184626f09af80346002b0cd13b69ca
:102838009b018b4a1a44fb79114618461df06aff22
:1028480078610123fb7300e23b691b01824a134450
:102858008749184626f082f80346002b0cd13b69bd
:102868009b017f4a1a44fb79114618461ef02afd3f
:1028780078610123fb73e8e13b691b01764a134445
:102888007c49184626f06af80346002b0cd13b69b0
:102898009b01734a1a44fb79114618461ef03afd0b
:1028a80078610123fb73d0e13b691b016a4a134439
:1028b8007149184626f052f80346002b0cd13b69a3
:1028c8009b01674a1a44fb79114618461ef04afdd7
:1028d80078610123fb73b8e13b691b015e4a13442d
:1028e8006649184626f03af80346002b0cd13b6996
:1028f8009b015b4a1a44fb791146184616f0dcff27
:1029080078610123fb73a0e13b691b01524a134420
:102918005b49184626f022f80346002b0cd13b6988
:102928009b014f4a1a44fb791146184617f01ef8c6
:1029380078610123fb7388e13b691b01464a134414
:102948005049184626f00af80346002b0cd13b697b
:102958009b01434a1a44fb79114618461ef02afd8a
:1029680078610123fb7370e13b691b013a4a134408
:102978004549184625f0f2ff0346002b0cd13b6968
:102988009b01374a1a44fb79114618461ef03afd56
:1029980078610123fb7358e13b691b012e4a1344fc
:1029a8003a49184625f0daff0346002b0cd13b695b
:1029b8009b012b4a1a44fb79114618461ef04afd22
:1029c80078610123fb7340e13b691b01224a1344f0
:1029d8002f49184625f0c2ff0346002b0cd13b694e
:1029e8009b011f4a1a44fb79114618461af086fcc7
:1029f80078610123fb7328e13b691b01164a1344e4
:102a08002449184625f0aaff0346002b0cd13b6940
:102a18009b01134a1a44fb791146184610f08afea6
:102a280078610123fb7310e13b691b010a4a1344d7
:102a38001949184625f092ff0346002b2ed13b6911
:102a48009b01074a1a44fb79114618461ef02afdd5
:102a580078610123fb73f8e0cc6b002064860120c9
:102a6800cc6d00208c8701202c8601202c8701202a
:102a7800348701203c87012044870120908701206a
:102a880094870120988701209c870120a087012036
:102a9800a48701204c8701206c8601203b691b011b
:102aa800894a13448949184625f058ff0346002be4
:102ab8000cd13b699b01864a1a44fb79114618469a
:102ac8001af05cfc78610123fb73bee03b691b01d3
:102ad8007d4a13447f49184625f040ff0346002be2
:102ae8000cd13b699b017a4a1a44fb791146184676
:102af8001ef000fd78610123fb73a6e03b691b0112
:102b0800714a13447449184625f028ff0346002be0
:102b18000cd13b699b016e4a1a44fb791146184651
:102b28001af06cfc78610123fb738ee03b691b0192
:102b3800654a13446949184625f010ff0346002bdf
:102b48000cd13b699b01624a1a44fb79114618462d
:102b58001af0cefd78610123fb7376e03b691b0117
:102b6800594a13445e49184625f0f8fe0346002bdf
:102b78000cd13b699b01564a1a44fb791146184609
:102b88001af07cfc78610123fb735ee03b691b0152
:102b98004d4a13445349184625f0e0fe0346002bde
:102ba8000cd13b699b014a4a1a44fb7911461846e5
:102bb8001ef0c8fc78610123fb7346e03b691b01ea
:102bc800414a13444849184625f0c8fe0346002bdd
:102bd8000cd13b699b013e4a1a44fb7911461846c1
:102be8001ef0d8fc78610123fb732ee03b691b01c2
:102bf800354a13443d49184625f0b0fe0346002bdc
:102c08000cd13b699b01324a1a44fb79114618469c
:102c18001ef0e8fc78610123fb7316e03b691b0199
:102c2800294a13443249184625f098fe0346002bda
:102c38000bd13b699b01264a1a44fb791146184679
:102c480010f0d6fb78610123fb73fb7b002b09d0c6
:102c58007b69002b03d1bb7b0133bb7302e07b7b19
:102c680001337b733b6901333b61bb793a699a4213
:102c7800fff6fdabbb7b002b1bd01e4b022283f85b
:102c88000021fb79002b0ad0fb795a1e1a491346fa
:102c98005b0013445b010b44413302221a707b7bb7
:102ca800002b02d123f070fa09e0002021f0e4fda6
:102cb80005e07b7b002b02d0022021f0ddfd002304
:102cc80018461837bd4680bdcc6b002054870120bc
:102cd800cc6d0020a8870120ac870120b087012097
:102ce800b4870120748601205c870120b887012001
:0c2cf8007c860120685c002080610020c8
:020000040000fa
:102d0400b0b596b002af0346fb71fb79362b00f2e7
:102d1400378301a252f823f0f92d0000112e000090
:102d2400292e0000412e00005b2e0000752e0000ad
:102d34008f2e0000a92e0000c32e0000dd2e0000ff
:102d4400f72e0000112f00002b2f0000452f00004c
:102d54005f2f0000792f0000932f0000ad2f00009b
:102d6400c72f0000e12f0000fb2f000015300000ea
:102d74002f30000041300000553000006930000061
:102d84007d30000091300000a53000002d3100009e
:102d940047310000613100007b31000099310000af
:102da400b1310000c9310000e1310000f931000007
:102db400173200002f320000473200005f3200005b
:102dc400773200009532000085330000b9320000ec
:102dd400d1320000e9320000013300001933000051
:102de4002b3300003d3300004f33000061330000fb
:102df4007333000007f10c03ae4a1c4615460fcd91
:102e04000fc495e8070084e80700bce207f10c034f
:102e1400a94a1c4615460fcd0fc495e80f0007c4f8
:102e24002380b0e207f10c03a44a1c4615460fcddb
:102e34000fc495e8070003c42280a4e207f10c0341
:102e44009f4a1c4615460fcd0fc495e80300206029
:102e54000434218097e207f10c039a4a1c46154674
:102e64000fcd0fc495e803002060043421808ae26a
:102e740007f10c03944a1c4615460fcd0fc495e880
:102e840003002060043421807de207f10c038f4aa3
:102e94001c4615460fcd0fc495e80300206004348a
:102ea400218070e207f10c03894a1c4615460fcdb8
:102eb4000fc495e8030020600434218063e207f125
:102ec4000c03844a1c4615460fcd0fc495e8030035
:102ed40020600434217056e207f10c037e4a1c463c
:102ee40015460fcd0fc495e803002060043421700b
:102ef40049e207f10c03794a1c4615460fcd0fc46d
:102f040095e803002060043421703ce207f10c03cf
:102f1400734a1c4615460fcd0fc495e80300206084
:102f2400043421702fe207f10c036e4a1c46154647
:102f34000fcd0fc495e8030020600434217022e211
:102f440007f10c03684a1c4615460fcd0fc495e8db
:102f5400030020600434217015e207f10c03634a76
:102f64001c4615460fcd0fc495e8030020600434b9
:102f7400217008e207f10c035d4a1c4615460fcd8b
:102f84000fc495e80300206004342170fbe107f1cd
:102f94000c03584a1c4615460fcd0fc495e8030090
:102fa400206004342170eee107f10c03524a1c4600
:102fb40015460fcd0fc495e803002060043421802a
:102fc400e1e107f10c034d4a1c4615460fcd0fc431
:102fd40095e80300206004342180d4e107f10c0358
:102fe400474a1c4615460fcd0fc495e803002060e0
:102ff40004342180c7e107f10c03424a1c461546fc
:103004000fcd0fc495e80300206004342180bae199
:1030140007f10c033c4a1c4615460fcd0fc495e836
:103024000300206004342180ade107f10c03374a2a
:103034001c4613460fcb84e80f00a4e107f10c03f0
:10304400334a1c4615460fcd0fc42b6823709ae1f2
:1030540007f10c032f4a1c4615460fcd0fc42b68ed
:10306400238090e107f10c032b4a1c4615460fcd33
:103074000fc42b68237086e107f10c03274a1c4612
:1030840015460fcd0fc42b6823707ce107f10c03a8
:10309400234a1c4615460fcd0fc42b68237072e1da
:1030a40007f10c031f4a1c4615460fcd0fc42b68ad
:1030b400236068e1f8390000143a0000343a000053
:1030c400503a0000683a0000803a0000983a000044
:1030d400b03a0000c83a0000e03a0000f83a0000b4
:1030e400103b0000283b0000403b0000583b000020
:1030f400703b0000883b0000a03b0000b83b000090
:10310400d03b0000e83b0000003c0000183c0000fd
:10311400283c00003c3c0000503c0000643c0000a3
:10312400783c00008c3c000007f10c03a04a1c46cc
:1031340015460fcd0fc495e80300206004342170b8
:1031440021e107f10c039b4a1c4615460fcd0fc421
:1031540095e8030020600434218014e107f10c0396
:10316400954a1c4615460fcd0fc495e80300206010
:103174000434218007e107f10c03904a1c461546ec
:103184000fcd0fc495e80f0007c4238002341b0c35
:103194002370f8e007f10c03894a1c4615460fcd4d
:1031a4000fc495e80f0007c42380ece007f10c037b
:1031b400844a1c4615460fcd0fc495e80f0007c47a
:1031c4002380e0e007f10c037f4a1c4615460fcd2f
:1031d4000fc40fcd0fc42b682370d4e007f10c0388
:1031e4007a4a1c4615460fcd0fc495e8030084e8bf
:1031f4000300c8e007f10c03754a1c4615460fcdc1
:103204000fc495e8070003c422800234130c237012
:10321400b9e007f10c036f4a1c4615460fcd0fc4e5
:1032240095e8070003c42270ade007f10c036a4a75
:103234001c4615460fcd0fc495e8030084e803002f
:10324400a1e007f10c03654a1c4615460fcd0fc4d7
:1032540095e8070003c4227095e007f10c03604a67
:103264001c4615460fcd0fc495e8070003c4228001
:1032740089e007f10c035b4a1c4615460fcd0fc4c9
:103284000fcd0fc495e803002060043421807ae058
:1032940007f10c03544a1c4615460fcd0fc40fcd3d
:1032a4000fc495e8030020600434218002340b0c21
:1032b400237068e007f10c034c4a1c4615460fcdf9
:1032c4000fc40fcd0fc42b6823705ce007f10c030f
:1032d400474a1c4615460fcd0fc495e80f0084e8f5
:1032e4000f0050e007f10c03424a1c4615460fcd6f
:1032f4000fc495e8070003c4227044e007f10c03ef
:103304003d4a1c4613460fcb07c4238002341b0cd2
:10331400237038e007f10c03384a1c4613460fcbe0
:1033240084e80f002fe007f10c03354a1c461346ce
:103334000fcb84e80f0026e007f10c03314a1c464a
:1033440013460fcb07c423801de007f10c032e4a5c
:103354001c4613460fcb07c4238014e007f10c036b
:103364002a4a1c4613460fcb07c423800be007f1ff
:103374000c03274a1c4613460fcb07c4238002e0e4
:103384004ff0ff330fe007f10c02224b009313467a
:10339400214a2249224825f048f8214825f062faba
:1033a4000346fb64fb6c18465037bd46b0bd00bff6
:1033b400a03c0000b83c0000d03c0000e83c000009
:1033c400083d0000283d0000483d00006c3d000021
:1033d400843d0000a03d0000bc3d0000d43d000041
:1033e400f03d00000c3e0000343e00005c3e000056
:1033f400803e0000a03e0000bc3e0000cc3e000029
:10340400dc3e0000ec3e0000fc3e00000c3f0000ef
:103414001c3f0000e8870120a88501202c3f000004
:04342400e489002017
:020000040000fa
:1034280080b584b000af03463960fb710023bb60f0
:10343800fb79052b05d91e2021f01efa4ff0ff332a
:1034480094e225f0b9f90023fb73fb79002b40f0d7
:103458002d81824825f004fa0346dbb219467f48dd
:103468001cf056fdb860fb7b0133fb737c4825f0ec
:10347800f7f90346dbb2194679481cf049fdb860f4
:10348800fb7b0133fb73774825f0eaf90346dbb28f
:10349800194674481cf03cfdb860fb7b0133fb7394
:1034a800714825f0ddf90346dbb219466e481cf079
:1034b8002ffdb860fb7b0133fb736c4825f0d0f916
:1034c8000346dbb2194669481cf022fdb860fb7b55
:1034d8000133fb73664825f0c3f90346dbb219468e
:1034e80063481cf015fdb860fb7b0133fb73614832
:1034f80025f0b6f90346dbb219465e481cf008fd14
:10350800b860fb7b0133fb735b4825f0a9f90346e0
:10351800dbb2194658481cf0fbfcb860fb7b013352
:10352800fb73564825f09cf90346dbb2194653480d
:103538001cf0eefcb860fb7b0133fb73504825f0b0
:103548008ff90346dbb219464d481cf0e1fcb86020
:10355800fb7b0133fb734b4825f082f90346dbb252
:10356800194648481cf0d4fcb860fb7b0133fb7358
:10357800454825f075f90346dbb2194642481cf068
:10358800c7fcb860fb7b0133fb73404825f068f942
:103598000346dbb219463d481cf0bafcb860fb7b19
:1035a8000133fb733a4825f05bf90346dbb2194651
:1035b80037481cf0adfcb860fb7b0133fb73354822
:1035c80025f04ef90346dbb2194632481cf0a0fc40
:1035d800b860fb7b0133fb732f4825f041f90346a4
:1035e800dbb219462c481cf093fcb860fb7b013316
:1035f800fb732a4825f034f90346dbb219462748fd
:103608001cf086fcb860fb7b0133fb73244825f073
:1036180027f90346dbb2194621481cf079fcb8604b
:10362800fb7b0133fb731f4825f01af90346dbb215
:1036380019461c481cf06cfcb860fb7b0133fb731b
:10364800194825f00df90346dbb2194616481cf057
:103658005ffcb860fb7b0133fb7379e1788701205d
:103668003486012000880120bc860120c486012000
:10367800cc8601203c8601200c860120d4860120be
:10368800dc860120e48601201c8601204486012076
:103698007c8701208087012024860120ec86012078
:1036a80084870120148701201c870120b14825f058
:1036b800d7f80346dbb21946ae481cf029fcb860bf
:1036c800fb7b0133fb73ac4825f0caf80346dbb239
:1036d8001946a9481cf01cfcb860fb7b0133fb733e
:1036e800a64825f0bdf80346dbb21946a3481cf0ee
:1036f8000ffcb860fb7b0133fb73a14825f0b0f8e1
:103708000346dbb219469e481cf002fcb860fb7bfe
:103718000133fb739b4825f0a3f80346dbb2194637
:1037280098481cf0f5fbb860fb7b0133fb739648a7
:1037380025f096f80346dbb2194693481cf0e8fbdf
:10374800b860fb7b0133fb73904825f089f803468a
:10375800dbb219468d481cf0dbfbb860fb7b0133fc
:10376800fb738b4825f07cf80346dbb21946884882
:103778001cf0cefbb860fb7b0133fb73854825f05a
:103788006ff80346dbb2194682481cf0c1fbb860eb
:10379800fb7b0133fb73804825f062f80346dbb2fc
:1037a80019467d481cf0b4fbb860fb7b0133fb7302
:1037b8007a4825f055f80346dbb2194677481cf0dd
:1037c800a7fbb860fb7b0133fb73754825f048f80d
:1037d8000346dbb2194672481cf09afbb860fb7bc3
:1037e8000133fb736f4825f03bf80346dbb21946fb
:1037f8006c481cf08dfbb860fb7b0133fb736a4897
:1038080025f02ef80346dbb2194667481cf080fb0a
:10381800b860fb7b0133fb73644825f021f803464d
:10382800dbb2194661481cf073fbb860fb7b0133bf
:10383800fb735f4825f014f80346dbb219465c4871
:103848001cf066fbb860fb7b0133fb73594825f01d
:1038580007f80346dbb2194656481cf059fbb86016
:10386800fb7b0133fb73544824f0faff0346dbb2b9
:10387800194651481cf04cfbb860fb7b0133fb73c5
:103888004e4824f0edff0346dbb219464b481cf0c6
:103898003ffbb860fb7b0133fb73494824f0e0ff32
:1038a8000346dbb2194646481cf032fbb860fb7b86
:1038b8000133fb73434824f0d3ff0346dbb21946b8
:1038c80040481cf025fbb860fb7b0133fb733e4886
:1038d80024f0c6ff0346dbb219463b481cf018fb30
:1038e800b860fb7b0133fb73384824f0b9ff03460b
:1038f800dbb2194635481cf00bfbb860fb7b013383
:10390800fb73334824f0acff0346dbb2194630485a
:103918001cf0fefab860fb7b0133fb732d4824f0e2
:103928009fff0346dbb219462a481cf0f1fab8603b
:10393800fb7b0133fb73284824f092ff0346dbb27c
:10394800194625481cf0e4fab860fb7b0133fb7389
:10395800fa7bfb7911461846fdf74cfbb860bb684b
:10396800002b02da1f2020f087ff002318461037ab
:10397800bd4680bd888701206486012024870120f8
:103988008c8701202c8601202c8701203487012078
:103998003c870120448701209087012094870120db
:1039a800988701209c870120a0870120a4870120f7
:1039b8004c8701206c86012054870120a8870120ac
:1039c800ac870120b0870120b487012074860120cc
:0c39d8005c870120b88701207c8601205c
:020000040000fa
:1039e4007b0000bf2249445f2564223a22257322ca
:1039f4002c0000bf4552525f4a534f4e5f534f4d08
:103a0400455f474f4f445f534f4d455f424144002c
:103a14004552525f4a534f4e5f534f4d455f474f98
:103a24004f445f534f4d455f41444d494e0000bfe5
:103a34004552525f4a534f4e5f4e4f5f474f4f447c
:103a44005f534f4d455f4241440000bf4552525fb2
:103a54004a534f4e5f41525241595f53495a455f51
:103a6400310000bf4552525f4a534f4e5f4152529c
:103a740041595f53495a455f320000bf4552525f76
:103a84004a534f4e5f41525241595f53495a455f21
:103a9400330000bf4552525f4a534f4e5f4152526a
:103aa40041595f53495a455f340000bf4552525f44
:103ab4004a534f4e5f41525241595f53495a455ff1
:103ac400350000bf4552525f4a534f4e5f45515f28
:103ad4005052455345545f31000000bf4552525f78
:103ae4004a534f4e5f45515f5052455345545f32e0
:103af400000000bf4552525f4a534f4e5f45515f2d
:103b04005052455345545f33000000bf4552525f45
:103b14004a534f4e5f45515f5052455345545f34ad
:103b2400000000bf4552525f4a534f4e5f45515ffc
:103b34005052455345545f35000000bf4552525f13
:103b44004a534f4e5f45515f5052455345545f367b
:103b5400000000bf4552525f4a534f4e5f45515fcc
:103b64005052455345545f37000000bf4552525fe1
:103b74004a534f4e5f45515f5052455345545f3849
:103b8400000000bf4552525f4a534f4e5f45515f9c
:103b94005052455345545f39000000bf4552525faf
:103ba4004a534f4e5f45515f5052455345545f3120
:103bb400300000bf4552525f4a534f4e5f45515f3c
:103bc4005052455345545f31310000bf4552525f56
:103bd4004a534f4e5f45515f5052455345545f31f0
:103be400320000bf4552525f4a534f4e5f45515f0a
:103bf4005052455345545f31330000bf4552525f24
:103c04004a534f4e5f45515f5052455345545f31bf
:103c1400340000bf4552525f4a534f4e5f4b565fcc
:103c2400455252004552525f4a534f4e5f4b4559dd
:103c34005f4c454e000000bf4552525f4a534f4e01
:103c44005f524541445f4552520000bf4552525fa6
:103c54004a534f4e5f434d445f4d5347000000bfee
:103c64004552525f4a534f4e5f434d445f4b455953
:103c7400000000bf4552525f4a534f4e5f434d44cc
:103c84005f56414c000000bf4552525f4a534f4ead
:103c94005f434d445f464f524d4154004552525f7d
:103ca4004a534f4e5f434d445f554e4b4e4f574e14
:103cb400000000bf4552525f4a534f4e5f50524f6f
:103cc40046494c455f494e44580000bf4552525f37
:103cd4004a534f4e5f50524f46494c455f524541ff
:103ce400440000bf4552525f4a534f4e5f50524ffb
:103cf40046494c455f4e414d45535f524553544fe1
:103d0400524500004552525f4a534f4e5f50524f46
:103d140046494c455f4e414d45535f4352454154de
:103d2400450000bf4552525f4a534f4e5f50524fb9
:103d340046494c455f4e414d45535f44454c4554bf
:103d4400450000bf4552525f4a534f4e5f50524f99
:103d540046494c455f4e414d45535f4455504c498f
:103d640043415445000000bf4552525f4a534f4ef1
:103d74005f44454c4554455f50524f46494c4500bd
:103d84004552525f4a534f4e5f4455504c4943414c
:103d940054455f50524f46494c4500004552525fce
:103da4004a534f4e5f50415253455f4e554c4c5f02
:103db40042554646000000bf4552525f4a534f4e9b
:103dc4005f50415253455f425546465f4c454e0055
:103dd4004552525f4a534f4e5f50415253455f4ed6
:103de400554d5f544f4b454e000000bf4552525f46
:103df4004a534f4e5f50415253455f4e4f545f4fad
:103e0400424a4543540000bf4552525f4a534f4e05
:103e14005f50415253455f554e45585045435445b4
:103e2400445f464f524d41545f524541440000bfe8
:103e34004552525f4a534f4e5f50415253455f556e
:103e44004e45585045435445445f464f524d4154a6
:103e54005f575249544500004552525f4a534f4ef2
:103e64005f50415253455f554e4558504543544564
:103e7400445f464f524d4154000000bf4552525fcb
:103e84004a534f4e5f50415253455f554e4558502b
:103e940045435445445f5354415445004552525f91
:103ea4004a534f4e5f4e4f5f465245455f50524f07
:103eb40046494c45000000bf4552525f504b545f89
:103ec40056455249465900004552525f504b545f83
:103ed400554e4b4e4f574e004552525f4446555f28
:103ee4004e4f5f46494c45004552525f494d475f2e
:103ef4004442475f310000bf4552525f494d475f1e
:103f04004442475f320000bf4552525f494d475f0c
:103f14004442475f330000bf4552525f494d475ffb
:103f24004442475f340000bf2573257325730000a6
:103f3400220000bf257325732573257325730000a4
:103f44002c0000bf223a0000222c0000223a22005a
:103f540025730000257325642573223a7b0000bf76
:103f6400222c2264617461007365675f636e740060
:103f74002573257325732564257300007365675fb6
:0c3f84006e756d007365675f746f7400ec
:020000040000fa
:103f900080b5aab000aff860b9607a607b68c7f8f6
:103fa0008030002387f8333007f13403f96818466e
:103fb00023f0f6fdbb685a1cba601b7887f887307f
:103fc00097f88730002b00f0698297f88730252b0f
:103fd00008d097f8872007f13403114618461af0e5
:103fe00059fb5ae20023c7f89c30d7f89c30c7f839
:103ff0009830202387f886304ff0ff33c7f8903091
:10400000bb685a1cba601b7887f8873097f88730ee
:10401000302b09d1302387f88630bb685a1cba6030
:104020001b7887f887300ce097f887302d2b08d164
:104030000223c7f89830bb685a1cba601b7887f80f
:10404000873097f887302a2b21d1d7f880301a1d76
:10405000c7f880201b68c7f89c30bb685a1cba6040
:104060001b7887f887301ae0d7f89c2013469b000e
:1040700013445b001a4697f887301344303bc7f867
:104080009c30bb685a1cba601b7887f8873097f859
:1040900087302f2b03d997f88730392be4d997f83d
:1040a00087302e2b37d1bb685a1cba601b7887f833
:1040b000873097f887302a2b0ed1d7f880301a1d19
:1040c000c7f880201b68c7f89030bb685a1cba60dc
:1040d0001b7887f887301ee00023c7f8903012e085
:1040e000d7f8902013469b0013445b001a4697f8bc
:1040f00087301344303bc7f89030bb685a1cba6015
:104100001b7887f8873097f887302f2b03d997f8db
:104110008730392be4d997f887306c2b0bd1d7f83f
:10412000983043f00403c7f89830bb685a1cba6053
:104130001b7887f8873097f88730002b00f0b08124
:1041400097f88730583b202b00f2d78001a252f815
:1041500023f000bff1410000fb420000fb420000e1
:10416000fb420000fb420000fb420000fb4200005b
:10417000fb420000fb420000fb420000d94100006e
:10418000f9410000e9410000fb420000fb42000051
:10419000fb420000fb420000fb420000fb4200002b
:1041a000fb420000fb420000fb420000fb4200001b
:1041b000e1410000fb420000fb420000fb42000026
:1041c00015420000fb420000e9410000fb420000f4
:1041d000fb420000f14100000223c7f8943095e053
:1041e0000823c7f8943091e00a23c7f894308de093
:1041f0001023c7f8943089e0d7f880301a1dc7f82b
:1042000080201b68dab207f13403114618461af011
:1042100041fa42e1d7f880301a1dc7f880201b68a8
:10422000c7f88830d7f88830002b03d107f1330363
:10423000c7f888300023c7f8a03004e0d7f8a030d2
:104240000133c7f8a030d7f88820d7f8a03013443e
:104250001b78002bf2d1d7f89030002b17dbd7f862
:104260009030d7f8a0209a4211d9d7f89030c7f8eb
:10427000a0300ce097f8862007f134031146184669
:104280001af008fad7f8a0300133c7f8a030d7f8f1
:10429000983003f00203002b12d1d7f8a020d7f8f2
:1042a0009c309a42e6d30be0d7f888305a1cc7f806
:1042b00088201a7807f13403114618461af0eaf9f3
:1042c000d7f888301b78002b0dd0d7f890305a1ec5
:1042d000c7f89020002be7d105e007f13403202137
:1042e00018461af0d7f9d7f8a0305a1cc7f8a02002
:1042f000d7f89c209a42f0d8cfe097f8872007f1b2
:104300003403114618461af0c5f9c6e0d7f89830bc
:1043100003f00403002b08d0d7f880301a1dc7f82b
:1043200080201b68c7f88c3012e097f88730642b28
:1043300006d1d7f880301a1dc7f880201b6805e029
:10434000d7f880301a1dc7f880201b68c7f88c305a
:1043500097f88730642b0ed1d7f88c30002b0ada0f
:10436000d7f88c305b42c7f88c30d7f8983043f0e0
:104370000103c7f898300023c7f8a430d7f88c3071
:10438000d7f89420b3fbf2f2d7f8941001fb02f2b5
:104390009b1a87f88530d7f88c20d7f89430b2fb79
:1043a000f3f3c7f88c3097f88530092b0bd997f8c1
:1043b0008730782b01d1272200e0072297f885303b
:1043c000134487f88530d7f8a4305a1cc7f8a420c6
:1043d00097f885203032d2b207f1a8010b4403f8d8
:1043e000982cd7f88c30002b03d0d7f8a4301f2b93
:1043f000c4d9d7f8983003f00103002b0ad0d7f8be
:10440000a4305a1cc7f8a42007f1a80213442d2297
:1044100003f8982cd7f8a430c7f8a0300ce097f830
:10442000862007f13403114618461af033f9d7f8fd
:10443000a0300133c7f8a030d7f8983003f002035a
:10444000002b05d1d7f8a020d7f89c309a42e6d3ac
:10445000d7f8a430013bc7f8a43007f11002d7f811
:10446000a43013441a7807f13403114618461af0a1
:1044700011f9d7f8a430002bead105e007f1340395
:10448000202118461af006f9d7f8a0305a1cc7f8b0
:10449000a020d7f89c209a42f0d88be500bf00e01e
:1044a00000bf07f1340318461df0eeff034618461f
:0844b000a837bd4680bd00bf26
:020000040000fa
:1044b8002de9f04f2ded028bd2e9008997b0cde9b7
:1044c8000c138b6808930b690f90d1e900b614930d
:1044d800cd68002200234046494620f0d3fc40b96d
:1044e8001bf0040f32d11bf00803059330d02023b2
:1044f80003e089f0004399462d232b70089b03f1b4
:10450800ff3a012305934c4929f0004300208b42d0
:1045180008bf80451fd10d9b413b192b059b94bfbc
:10452800464947492b44184624f0f2fc284624f013
:1045380097f9cdf800b00246089b0f98294618f065
:1045480097fb17b0bdec028bbde8f08f2b23d4e7a7
:10455800ddf820a0d7e7994208bf404509d20d9b56
:10456800413b192b059b94bf364937492b441846c4
:10457800dae7002200234046494621f014fa9fed6d
:104588002c7b8ded027b48b300240d9824f087fc2a
:10459800002ec3b20993c0f2d781672b5ad1002edf
:1045a80008bf0126231d02dbb442c0f2c68165277d
:1045b80061e09ded067b8ded027b01340022234beb
:1045c800dde902010df0a6ff42464b46cde90601a2
:1045d80020f03cfc0028ecd000271fe00446ede763
:1045e80014f5967f11da87b90022194b40464946df
:1045f8000df090ff002280468946154bdde9020147
:104608000df088ffcde902010127dde90201002252
:104618000e4b08f0bdfacde90201013cdde90223a9
:104628004046494620f02efc0028d9d1ade700bf0e
:10463800000000000000f03f0000f07f548d0200f1
:10464800588d02005c8d0200608d0200000024403d
:1046580000005043099f662f06f101060bd1002c7c
:1046680004da9fedbd7b8ded027b0024099b672b4f
:1046780018bf361966279ded027bcde906898dedb9
:104688000a7b00230e93dde90a23dde9060108f021
:104698007ffa41ec100b13f073fa51ec100bb0eeeb
:1046a800408af0ee608a1df0a4ffb0ee480af0eef2
:1046b800680a069b1093079b159083f0004311939b
:1046c8009ded0a1b9ded102b22f0e4fa53ec102b04
:1046d80083f000430793dde90a01a34b8ded060a39
:1046e800002208f055fa0e9b01339e42cde90a01db
:1046f8000e93c8d100229d4b0df00cffcde90a01a5
:1047080002460b46dde9060120f0bcfb002840f01c
:104718008180dde90a23dde9060121f044f910b1c1
:10472800159bda0776d5dde90a234046494607f0a6
:1047380077f90022cde906018b4bdde902010df086
:10474800e9fedde90623cde90a0120f049f9002850
:1047580065d0662f04f1010465d10136a146a9eba5
:1047680006034ff00008059e1093cdf80880109bb3
:10477800994540f08180029b002b00f0c880a81961
:104788000022652f027029d1149b1499013b944291
:10479800ea54c1f1030ebcbf644201220a21002c75
:1047a80040f0bc800eeb030cbcf1000f00f3b680a8
:1047b800002a03f1ff3114bf2d222b226a540d9acf
:1047c800023b413a192a05eb030198bf45279e424f
:1047d8000f70aaf1020a01da24f09afb0bf0030326
:1047e800022b7ff4a3aebaf1000f7ff79fae2846e5
:1047f80024f036f805eb0a03059a824240f39980c3
:10480800059b2b4418465246302124f0fff900231b
:1048180008938be69fed527b8ded0a7b83e79ded38
:10482800027b8ded0a7b652f14bfa1464ff000096e
:1048380095e7029a52b9b9f1000f07da0e992e22bc
:104848006a54012201360af1ff3a029205eb080187
:10485800aa193144302001e002f8010b9142fbd142
:1048680008eb06023033aaeb080808f1ff3a561c99
:10487800ab544ff0000828e00c9b0e961b69053bd3
:10488800b3427ff678afdde90a23dde9060108f0d7
:104898007ff941ec100b13f073f951ec100bb0eeeb
:1048a800408af0ee608a1df0a4fe0bf01002092881
:1048b8000346a8bf09230243bbd1099a672ab8d186
:1048c800b9f1000fc2da08f10108069b1293079ba1
:1048d800b0ee480af0ee680a83f0004313939dedaa
:1048e8000a1b9ded122b22f0d5f953ec102b83f007
:1048f80000430793dde90a0100221b4b8ded060af0
:1049080008f046f909f1ff39cde90a012fe71bf054
:10491800100f1ebf2e23ab55013630e7b4fbf1fc58
:10492800013b01fb1c443034ec540af1ff3a644665
:1049380035e72a5c1a5401385ee7002cbff69aaeb8
:10494800662788e606262de6099b672bfad01f46c0
:10495800062680e6aff30080000000000000f03f6c
:104968000000000000000000000024400000144087
:020000040000fa
:104978002de9f04f95b0cde912030b68089392ed3d
:10498800007b4b680a938b6809930b690d93cc687d
:104998000022002351ec170b8ded047b20f072faf6
:1049a80040b9089b580734d4089b13f0080732d045
:1049b800202306e0dde9042181f00043cde904234a
:1049c8002d232370099b01275a1edde90403dff814
:1049d800f8b223f000414ff0000a594508bf50458e
:1049e8001bd1139b413b192b04eb070094bfb04923
:1049f800b04924f08dfaaf4823f032ff089b0093aa
:104a08000246099b1298214618f032f915b0bde804
:104a1800f08f2b23d5e7099ad7e7139b8b45a3f192
:104a2800410308bf82450b9309d2192b04eb0700f9
:104a380094bfa149a14924f06bfaa048dce73021d2
:104a4800e1550b997b1c1a2934bf58217821e15470
:104a5800931e079300220023dde90401023720f0aa
:104a6800a2ff002800f07b819fed8f7b8ded027bfc
:104a780000250a9bdde90289002bdde904abb8bffc
:104a880018230e93002642464b465046594608f0d6
:104a98007ff841ec100b13f073f842464b4651ec8b
:104aa800100b8ded100b0df035fd02460b465046f0
:104ab800594624f07ffa824b82468b464046494647
:104ac80000220df027fd731c0c930a9b002b8046d7
:104ad800894606da002200235046594620f063ff33
:104ae80028b90e9bb34200f3408101330c93002296
:104af800744b404649460df00dfd804689460246f6
:104b08000b465046594620f0bdf9002840f02f8149
:104b180042464b465046594620f045ff30b1dde944
:104b280010011df066fdc10740f1218142464b4648
:104b3800dde9040106f074ffcde90401dde9042193
:104b480021f00043604900208b4208bf82423ff4b5
:104b580048af4ff000083e46c246c1460d9b053b94
:104b6800b342b34633d9dde90223dde9040108f095
:104b78000ff841ec100b13f003f851ec100b8ded0e
:104b88000e0b1df036fd002840f0f680b9f1000f3d
:104b980000f0f28008f10108dde90223dde90e01e9
:104ba8000df0b8fc02460b46dde9040124f002fad8
:104bb800434bcde904010022dde902010df0aafc16
:104bc8000c9b09f101094b45cde90201c6d1baf1a7
:104bd800000f1ed1b8f1000f00f015810a9b002bc1
:104be80040f31181089bda0700f10d81a3192e22e9
:104bf8001a7008eb06022244302100bf03f8011f97
:104c08009a42fbd1079b46446fea080843440136a1
:104c180007930d9b0d990022a019013b9542027044
:104c2800b8bf6d42e254c1f1020eb8bf01224ff085
:104c38000a08002d40f0d7800eeb030cbcf1010fe1
:104c480000f0d180002a03f1ff3114bf2d222b225e
:104c580062540b9a023b1a2a04eb030134bf502218
:104c680070229e420a7001da24f052f9089b03f080
:104c78000303022b14d1079ba3f10208b8f1000f1c
:104c88000edd204623f0ecfd04eb0803b84280f269
:104c9800b68042463021e01923f0b8ff002309937b
:104ca8002046a9e6aff30080000000000000f03fb6
:104cb800448d0200488d02004c8d0200508d020088
:104cc8000000b03f000020400000f07fcde90289dd
:104cd8000135dde902231046194606f0a1fe80469b
:104ce800894602460b46dde9040120f0cbf800288e
:104cf800ecd0dff82cb1dff82c914ff0000a4ff020
:104d08000008dde90223dde9040120f0bbf80028f2
:104d18003ff4afae52465b46dde902010df0fafb07
:104d28000022002320f03ffe78b142464b46dde9e1
:104d380002010df0effb4246cde902014b46dde9e9
:104d480004010df0e7fbcde90401dde9020152465b
:104d58005b460df0dffb013dcde90201d1e79fed98
:104d68002e7b05468ded027bb3e70c9e8be64ff05c
:104d780000084ff00009d9e6baf1000f0bd1b9f1dc
:104d8800000f08d02e2304f80b30079b013b013697
:104d980007934ff0010a04eb0803a21933443021aa
:104da80002e000bf02f8011b9a42fbd1079b06eb09
:104db800080ba3eb08080b9b0928d4bf30305730e9
:104dc800192b06d840f02003613b192b01d824f099
:104dd8006df808f1ff330bf1010604f80b00079397
:104de8004ff00008d8e60799b5fbf8fc013b08fb33
:104df8001c5530350139e5540791654619e7225ca1
:104e08001a54013842e7089bdb067ff502af2e23d0
:104e1800a3550136fde600bf000000000000f03f8a
:084e28000000e03f00005043d0
:020000040000fa
:104e300080b5b6b000aff8607a603b600b46fb729d
:104e40000023c7f8c4300023c7f8c0300023c7f8d8
:104e5000bc30002387f8d630012387f8bb3001230c
:104e600087f8ba30fb7a87f8d730d7f8e0300022dd
:104e70001a7097f8d7301b01fa68d11807f1a00211
:104e8000102338681bf01af8c7f8c40007f1a00314
:104e9000d449184623f066fd0346002b05d00820b0
:104ea0001ff0eefc4ff0ff3314e297f8d7300133d8
:104eb00087f8d73097f8d7301b01fa6813441b786e
:104ec000022b05d009201ff0dbfc6ff0010301e28b
:104ed00097f8d730013387f8d730e9e197f8d73022
:104ee0001b01fa6813441b78012b03d0002387f8b9
:104ef000bb30e2e197f8d730013387f8d730012390
:104f000087f8ba30002387f8d530002387f8d430eb
:104f1000002387f8d330002387f8d2304ae197f88e
:104f2000d7207b68013b9a4203db002387f8ba3025
:104f300045e197f8d7301b01fa6813441b78012b21
:104f400007d097f8d7301b01fa6813441b78002b61
:104f500003d1002387f8ba3031e197f8d7305a1cd3
:104f600087f8d7201b01fa68d11807f1a002102397
:104f700038681af0a3ffc7f8c40097f8d7301b01b0
:104f8000fa68d11807f15c02402338681af096ffde
:104f9000c7f8c00007f1a0039349184623f0e2fccc
:104fa0000346002b28d107f1130207f15c031146d9
:104fb00018461df0c6fec7f8bc00d7f8bc30002b61
:104fc00005da0a201ff05cfc6ff0020382e1fb7c33
:104fd000002b02d0fb7c0e2b05d90b201ff050fcc0
:104fe0006ff0030376e1012387f8d53097f8d730c7
:104ff000013387f8d730dde007f1a0037b4918467d
:1050000023f0b0fc0346002b73d197f8d7207b68c0
:10501000053b9a4205db0c201ff032fc6ff00403c5
:1050200058e197f8d7301b01fa6813441b78022b1c
:1050300005d00d201ff024fc6ff005034ae197f81e
:10504000d730013387f8d7300023c7f8cc3048e099
:1050500097f8d7301b01fa6813441b78042b05d04e
:105060000e201ff00dfc6ff0060333e197f8d730e8
:105070001b01fa68d11807f15c02402338681af066
:105080001dffc7f8c000d7f8c030002b05d10f2096
:105090001ff0f6fb6ff007031ce107f11402d7f8cd
:1050a000cc301a4407f15c03114618461cf03cfb57
:1050b000c7f8bc00d7f8bc30002b05da10201ff071
:1050c000dffb6ff0080305e1012387f8d43097f880
:1050d000d730013387f8d730d7f8cc300133c7f851
:1050e000cc30d7f8cc30042bb2dd012387f8d63092
:1050f00060e007f1a0033e49184623f033fc034665
:10510000002b26d107f15c03184623f0adfb0346c4
:10511000c7f8b430d7f8b4303f2b05dd11201ff0ad
:10512000affb6ff00903d5e007f15c0207f1140350
:1051300005331146184623f0effe012387f8d330dc
:10514000012387f8d63097f8d730013387f8d73066
:1051500030e007f1a0032749184623f003fc03467b
:10516000002b21d107f1140303f1450207f15c0381
:10517000114618461bf0fefac7f8bc00d7f8bc3041
:10518000002b05da12201ff07bfb6ff00a03a1e071
:10519000012387f8d230012387f8d63097f8d7302b
:1051a000013387f8d73005e013201ff069fb6ff05b
:1051b0000b038fe097f8ba30002b7ff4b0ae97f86e
:1051c000d530002b74d097f8d630002b70d097f8dc
:1051d000d43083f00103dbb2002b2bd00023c7f8bf
:1051e000c83023e0ec860120f4860120fc860120f3
:1051f000048701200c870120fb7c013b374a4621b4
:1052000001fb03f31a44d7f8c830134403f589733c
:1052100093f9001007f11402d7f8c83013440a4676
:105220001a70d7f8c8300133c7f8c830d7f8c8307b
:10523000042be1dd97f8d33083f00103dbb2002bc0
:1052400010d0fb7c013b462202fb03f303f588737d
:10525000224a1344da1d07f1140305331146184698
:1052600023f05afe97f8d23083f00103dbb2002b13
:105270000bd0fb7c013b194a462101fb03f313448d
:1052800003f257131b7887f85930fb7c07f114029f
:105290001146184607f08cfdc7f8bc00d7f8bc30a3
:1052a000002b05da14201ff0ebfa6ff00c0311e06d
:1052b00097f8bb30002b7ff411ae97f8d630002b57
:1052c00007d097f8d720fb7ad31adab2d7f8e030b4
:1052d0001a7000231846d837bd4680bd685c002090
:020000040000fa
:1052e00080b584b000af0346fb71c84b93f8f0342f
:1052f000fb73fb7b002b00f02e82fb7b052b00f267
:105300002a82fb79002b00f02882fb79052b00f222
:105310002482fa7bfb799a4200f02182fb7b013bdd
:10532000fb73fb79013bfb71f97bfa79b8480b46bb
:105330005b000b445b0103441878b54913465b00de
:1053400013445b010b4402461a70fa7913465b0062
:1053500013445b01ae4a1344581cfa7b13465b00ae
:1053600013445b01aa4a13440133194623f0d4fdc8
:10537000f97bfa79a6480b465b000b445b010344ba
:1053800041331878a24913465b0013445b010b4478
:10539000413302461a70f97bfa799d480b465b004f
:1053a0000b445b01034442331878994913465b0070
:1053b00013445b010b44423302461a70f97bfa79bd
:1053c00093480b465b000b445b010344433318785e
:1053d0008f4913465b0013445b010b444333024681
:1053e0001a70f97bfa798a480b465b000b445b0123
:1053f000034444331878864913465b0013445b0129
:105400000b44443302461a70f97bfa7980480b4604
:105410005b000b445b010344453318787c49134619
:105420005b0013445b010b44453302461a70f97b61
:10543000fa7977480b465b000b445b010344463323
:105440001878734913465b0013445b010b444633e1
:1054500002461a70f97bfa796d480b465b000b44e3
:105460005b01034447331878694913465b001344d2
:105470005b010b44473302461a70f97bfa796448a2
:105480000b465b000b445b010344483318786049ca
:1054900013465b0013445b010b44483302461a7009
:1054a000f97bfa795a480b465b000b445b010344d5
:1054b00049331878564913465b0013445b010b448b
:1054c000493302461a70f97bfa7951480b465b0062
:1054d0000b445b0103444a3318784d4913465b0083
:1054e00013445b010b444a3302461a70f97bfa7984
:1054f00047480b465b000b445b0103444b33187871
:10550000434913465b0013445b010b444b33024693
:105510001a70f97bfa793e480b465b000b445b013d
:1055200003444c3318783a4913465b0013445b013b
:105530000b444c3302461a70f97bfa7934480b4617
:105540005b000b445b0103444d331878304913462c
:105550005b0013445b010b444d3302461a70f97b28
:10556000fa792b480b465b000b445b0103444e3336
:105570001878274913465b0013445b010b444e33f4
:1055800002461a70f97bfa7921480b465b000b44fe
:105590005b0103444f3318781d4913465b001344e5
:1055a0005b010b444f3302461a70f97bfa791848b5
:1055b0000b465b000b445b010344503318781449dd
:1055c00013465b0013445b010b44503302461a70d0
:1055d000f97bfa790e480b465b000b445b010344f0
:1055e000513318780a4913465b0013445b010b449e
:1055f000513302461a70f97bfa7905480b465b0075
:105600000b445b0103445233187803e0685c0020cc
:1056100080610020544913465b0013445b010b4436
:10562000523302461a70f97bfa794f480b465b00f9
:105630000b445b010344543319684b4813465b0029
:1056400013445b01034454331960f97bfa794648eb
:105650000b465b000b445b01034458331878424906
:1056600013465b0013445b010b44583302461a7027
:10567000f97bfa793c480b465b000b445b01034421
:1056800059331878384913465b0013445b010b44c7
:10569000593302461a70f97bfa7933480b465b009e
:1056a0000b445b0103445a3318782f4913465b00bf
:1056b00013445b010b445a3302461a70f97bfa79a2
:1056c00029480b465b000b445b0103445b331878ad
:1056d000254913465b0013445b010b445b330246d0
:1056e0001a70f97bfa7920480b465b000b445b018a
:1056f00003445c3318781c4913465b0013445b0178
:105700000b445c3302461a70f97bfa7916480b4653
:105710005b000b445b0103445d3318781249134668
:105720005b0013445b010b445d3302461a70f97b46
:10573000fa790d480b465b000b445b0103445e3372
:105740001878094913465b0013445b010b445e3330
:1057500002461a7004e000bf02e000bf00e000bf94
:0c5760001037bd4680bd00bf80610020f6
:020000040000fa
:10576c0080b58ab000af786039603b681b68bb605d
:10577c007b681b68db683b6100237b6107f10803d6
:10578c00184616f0fbfdf860fb68b3f1ff3f01d142
:10579c0006230ae2fb68b3f5803f09d3fb68190cba
:1057ac007b695a1c7a615b003a6913448ab21a808d
:1057bc00fb68bb84bb8c1f2b20d9bb8c2f2b1dd023
:1057cc00bb8c5c2b1ad0bb8c7f2b09d8bb8c19469d
:1057dc00ab4823f023fa0346002b01d00623e4e167
:1057ec007b69fe2b01d90623dfe17b695a1c7a61a8
:1057fc005b003a691344ba8c1a80bfe7bb8c1f2b31
:10580c0006d8042387f8263014e0bb680133bb604c
:10581c00bb681b782f2bf8d0bb681b785c2bf4d0a3
:10582c00002387f82630bb681b781f2b02d8042373
:10583c0087f82630ba683b681a607b69012b09d15e
:10584c007b6903f10043013b5b003a6913441b88fd
:10585c002e2b16d07b69022b4ed17b6903f10043b2
:10586c00013b5b003a6913441b882e2b44d17b69a6
:10587c0003f10043023b5b003a6913441b882e2b57
:10588c003ad17b695b003a69134400221a800023e9
:10589c003b620fe03a6a7b699a4201d22e2100e00a
:1058ac0020217a683b6a134424330a461a703b6af7
:1058bc0001333b623b6a0a2becd997f8263043f054
:1058cc002003d9b27a683b6a134424330a461a700f
:1058dc0000236ae17b6903f10043013b5b003a69f9
:1058ec0013441b88bb84bb8c202b02d0bb8c2e2b6f
:1058fc0006d17b69013b7b617b69002bead100e01f
:10590c0000bf7b695b003a69134400221a807b69f3
:10591c00002b01d1062348e10023bb6102e0bb69e7
:10592c000133bb61bb695b003a6913441b88202bb4
:10593c00f5d0bb69002b06d1bb695b003a691344f7
:10594c001b882e2b09d197f8263043f0030387f8d8
:10595c00263002e07b69013b7b617b69002b09d01f
:10596c007b6903f10043013b5b003a6913441b88dc
:10597c002e2befd17b6824330b222021184623f0e9
:10598c0043f9002387f8273000233b620823fb618f
:10599c00bb695a1cba615b003a6913441b88bb840f
:1059ac00bb8c002b00f0b780bb8c202b06d0bb8ca3
:1059bc002e2b0ad1ba697b699a4206d097f8263009
:1059cc0043f0030387f82630a4e03a6afb699a4255
:1059dc0003d2ba697b699a4224d1fb690b2b06d19d
:1059ec0097f8263043f0030387f8263096e0ba691f
:1059fc007b699a4205d097f8263043f0030387f869
:105a0c002630ba697b699a4200f287807b69bb6158
:105a1c0008233b620b23fb6197f827309b0087f828
:105a2c00273077e0bb8c7f2b18d997f8263043f0c2
:105a3c00020387f82630bb8c40f2b511184618f0db
:105a4c00cdfa0346bb84bb8c03f08003002b05d03e
:105a5c00bb8c03f07f030b4ad35cbb84bb8cff2b4a
